:020000040800F2
:10000000280A0020C92C00089345000895450008DF
:10001000994500089D450008A14500080000000022
:10002000000000000000000000000000A5450008DE
:10003000A745000800000000A9450008AB450008DE
:10004000E32C0008E32C0008E32C0008E32C000854
:10005000E32C0008E32C0008E32C0008E32C000844
:10006000E32C0008E32C0008E32C0008E32C000834
:10007000E32C0008E32C0008E32C0008E32C000824
:10008000E32C0008E32C0008E32C0008E32C000814
:10009000E32C0008E32C0008E32C0008E32C000804
:1000A000E32C0008E32C0008E32C0008E32C0008F4
:1000B000E32C0008C1440008E32C0008BD440008FC
:1000C000BF440008E32C0008E32C0008E32C0008E0
:1000D000E32C0008B5440008E32C0008E32C0008DA
:1000E000E32C0008E32C0008E32C000800F002F8E1
:1000F00000F03AF80AA090E8000C82448344AAF188
:100100000107DA4501D100F02FF8AFF2090EBAE885
:100110000F0013F0010F18BFFB1A43F0010318473B
:100120006878000088780000103A24BF78C878C149
:10013000FAD8520724BF30C830C144BF04680C60ED
:10014000704700000023002400250026103A28BF35
:1001500078C1FBD8520728BF30C148BF0B60704739
:100160001FB51FBD10B510BD05F02EFE1146FFF7DF
:10017000F7FF04F079F905F04CFE03B4FFF7F2FF46
:1001800003BC05F04DFE00000CB50020019000906E
:100190006B48006840F480306949086000BF6848D7
:1001A000006800F4003000900198401C0190009815
:1001B00018B90198B0F5A06FF1D16148006810F44A
:1001C000003F02D00120009001E000200090009844
:1001D000012842D15B48006840F01000594908608E
:1001E0000846006820F0030008600846006840F0F8
:1001F000020008605248406851494860084640681B
:1002000048600846406840F480604860084640689E
:1002100020F47C1048600846406840F4E8104860CC
:100220000846006840F08070086000BF44480068DD
:1002300010F0007FFAD04248406820F003004049A7
:1002400048600846406840F00200486000BF3C48F3
:10025000406800F00C000828F9D10CBD10B5FFF77C
:1002600093FF10BD10B53648006840F001003449D6
:1002700008600846406834490840314948600846EB
:100280000068324908402E4908600846006820F49A
:10029000802008600846406820F4FE0048604FF463
:1002A0001F008860FFF7DAFF4FF000602849086000
:1002B00010BD10B5002100200022214B5B6803F027
:1002C0000C0121B1042906D0082928D107E0214BCF
:1002D000214C236027E01F4B1F4C236023E0184B69
:1002E0005B6803F47010164B5B6803F480320223E2
:1002F00003EB904022B9194B4343174C23600DE0A8
:100300000F4B5B6813F4003F04D0144B4343124C73
:10031000236003E00F4B43430F4C236003E00D4B7E
:100320000D4C236000BF00BF054B5B68C3F3031394
:100330000B4CE15C084B1B68CB40074C236010BDA5
:1003400000100240002002400000FFF8FFFFF6FE10
:1003500008ED00E000127A000000002000093D00D6
:100360000400002031490143314A1160704770B5E3
:10037000002100230F22C4780CB32D4C246804F410
:10038000E064C4F5E064210AC1F10403CA40447882
:1003900004FA03F18478144021430901254C0678BE
:1003A000A155047804F01F050124AC4005786D11B7
:1003B0004FF0E02606EB8505C5F8004109E004781A
:1003C00004F01F050124AC401B4D0678761145F85A
:1003D000264070BD194A0A400243154B1B1F1A6084
:1003E000704739B1124A121D12680243104B1B1D8F
:1003F0001A6006E00E4A121D126882430C4B1B1D48
:100400001A607047042808D14FF0E021096941F0D3
:1004100004014FF0E022116107E04FF0E02109698B
:1004200021F004014FF0E022116170470000FA054D
:100430000CED00E000E400E080E100E080FFFF1F41
:1004400010B50446CA48844208D10121042001F0B5
:1004500039FC0021042001F035FC46E0C548844207
:1004600008D10121082001F02DFC0021082001F015
:1004700029FC3AE0C048844208D10121102001F053
:1004800021FC0021102001F01DFC2EE0BB4884421D
:1004900008D10121202001F015FC0021202001F0CD
:1004A00011FC22E0B648844208D10121402001F02D
:1004B00009FC0021402001F005FC16E0B14884420F
:1004C00008D10121802001F0FDFB0021802001F0F6
:1004D000F9FB0AE0AC48844207D10121801501F004
:1004E000F1FB0021A01501F0EDFB10BD10B50121BD
:1004F000084601F0E7FB0021012001F0E3FB10BDFD
:100500002DE9F041024600250026002000230024AA
:10051000002791F803C00CF00F0591F803C01CF000
:10052000100F03D091F802C04CEA050591F800C005
:10053000BCF1000F31D0146800202BE04FF0010C0B
:100540000CFA00F3B1F800C00CEA03069E4220D179
:1005500083004FF00F0C0CFA03F7BC4305FA03FCC1
:100560004CEA040491F803C0BCF1280F06D14FF007
:10057000010C0CFA00FCC2F814C00AE091F803C0A8
:10058000BCF1480F05D14FF0010C0CFA00FCC2F889
:1005900010C0401C0828D1D31460B1F800C0BCF1D1
:1005A000FF0F34DD546800202EE000F1080C4FF0FE
:1005B000010808FA0CF3B1F800C00CEA03069E42E9
:1005C00021D183004FF00F0C0CFA03F7BC4305FA5E
:1005D00003FC4CEA040491F803C0BCF1280F05D1D8
:1005E00000F1080C08FA0CF8C2F8148091F803C066
:1005F000BCF1480F07D100F1080C4FF0010808FAD0
:100600000CF8C2F81080401C0828CED35460BDE816
:10061000F0814FF6FF710180022181700421C170C9
:1006200070470246002093680B4201D0012000E091
:10063000002070470146886880B27047024600205B
:10064000D3680B4201D0012000E000207047014632
:10065000C86880B2704701617047416170470AB154
:10066000016100E041617047C16070474FF4803222
:100670000A438261816182618269826970470246B0
:100680000020424B18684FF68073184040EA021071
:1006900008433E4B186070473D49C8617047F0B54C
:1006A0000A46002300240021002500F00046B6F190
:1006B000004F02D1354EF16901E0344E7168C0F34C
:1006C000034583B200F44016B6F5401F08D121F06F
:1006D00070612E4E766826F070662C4F7E6012E0B8
:1006E00000F48016B6F5801F06D1032606FA05F43D
:1006F000A14341F0706106E0460D360103FA06F6AB
:10070000B14341F0706122B1460D360103FA06F69D
:10071000314300F00046B6F1004F02D11B4EF161AB
:1007200001E01A4E7160F0BD30B500228B071C0F3E
:100730000F2303FA04F2154B08338C1053F82430BE
:100740009343124C08348D1044F8253023468C1006
:1007500053F824308C07240F00FA04F423430B4C85
:1007600008348D1044F8253030BD0A4908607047C0
:1007700000080140000C014000100140001401403D
:1007800000180140001C0140002001400000014011
:1007900000002042DC00204210B50446FE4884429E
:1007A00008D10121C01401F08DFA0021E01401F0FC
:1007B00089FAC4E0B4F1804F08D10121084601F064
:1007C0008EFA0021012001F08AFAB8E0F348844251
:1007D00008D10121022001F082FA0021022001F05B
:1007E0007EFAACE0EE48844208D10121042001F0F9
:1007F00076FA0021042001F072FAA0E0E948844270
:1008000008D10121082001F06AFA0021082001F036
:1008100066FA94E0E448844208D10121102001F0F6
:100820005EFA0021102001F05AFA88E0DF48844285
:1008300008D10121202001F052FA0021202001F0EE
:100840004EFA7CE0DA48844208D10121401401F0DC
:1008500039FA0021601401F035FA70E0D54884427D
:1008600009D10121C80401F02DFA00214FF4002024
:1008700001F028FA63E0D048844209D1012108053B
:1008800001F020FA00214FF4801001F01BFA56E02D
:10089000CA48844209D10121480501F013FA002118
:1008A0004FF4001001F00EFA49E0C548844208D127
:1008B0000121402001F013FA0021402001F00FFA3D
:1008C0003DE0C048844208D10121802001F007FAB0
:1008D0000021802001F003FA31E0BB48844208D1B6
:1008E0000121801501F0FBF90021A01501F0F7F9B5
:1008F00025E0B648844209D10121080401F0E2F95B
:1009000000214FF4803001F0DDF918E0B048844256
:1009100009D10121480401F0D5F900214FF400303C
:1009200001F0D0F90BE0AB48844208D101218804E2
:1009300001F0C8F900214FF4802001F0C3F910BD87
:1009400000220288944B98420ED0994B98420BD0CB
:10095000B0F1804F08D0914B984205D0904B98420F
:1009600002D0904B984204D14FF68F731A404B88B7
:100970001A438D4B984207D08C4B984204D04FF6C7
:10098000FF431A40CB881A4302808B8883850B88EB
:100990000385814B98420BD0854B984208D08B4BF6
:1009A000984205D08A4B984202D08A4B984201D196
:1009B0000B7A038601238382704770B500240022DE
:1009C0000023058C4FF6FE7635400584028C838823
:1009D000048B4FF68F752C40B51E2C400D882C4390
:1009E000751E2A400D892A434D882A436A4DA84224
:1009F0000BD06F4DA84208D0744DA84205D0744D5D
:100A0000A84202D0734DA84213D14FF6F7752A4081
:100A10004D892A434FF6FB752A408D882A434FF6AD
:100A2000FF652B404FF6FF552B408D892B43CD8919
:100A30002B4383800483CD888586028470BD70B586
:100A4000002400220023058C4FF6EF763540058404
:100A5000028C8388048B48F6FF752C404FF6FF45C7
:100A60002C400D884FF6FF7606EA05252C434FF6FD
:100A7000DF752A400D8906EA05152A434D8806EAE6
:100A800005152A43444DA84202D0494DA8421DD124
:100A90004FF67F752A404D894FF6FF7606EA051519
:100AA0002A434FF6BF752A408D8806EA05152A436A
:100AB0004FF6FF352B404FF2FF752B408D8906EA2C
:100AC00085052B43CD8906EA85052B438380048366
:100AD000CD880587028470BD70B5002400220023F4
:100AE000058C4FF6FF6635400584028C8388848B25
:100AF0004FF68F752C404FF6FC752C400D882C431B
:100B00004FF6FF552A400D894FF6FF7606EA052578
:100B10002A434D8806EA05252A431F4DA84202D0E4
:100B2000234DA8421DD14FF2FF752A404D894FF643
:100B3000FF7606EA05252A434FF6FF352A408D88C1
:100B400006EA05252A434EF6FF752B404DF6FF7544
:100B50002B408D8906EA05152B43CD8906EA05153C
:100B60002B4383808483CD888587028470BD70B5D4
:100B7000002200230024058C4EF6FF7635400584C4
:100B8000038C8488828B48F6FF752A404FF6FF4518
:100B90002A400D8820E00000002C014000040040A5
:100BA00000080040000C004000100040001400400D
:100BB00000340140004C014000500140005401400D
:100BC00000180040001C0040002000400040014090
:100BD00000440140004801404FF6FF7606EA052533
:100BE0002A434DF6FF752B400D8906EA05352B4348
:100BF0004D8806EA05352B43FA4DA84202D0FA4D3E
:100C0000A84208D14BF6FF752C408D894FF6FF7630
:100C100006EA85152C4384808283CD88A0F8405055
:100C2000038470BD828B4FF2FF331A408283828B24
:100C30004FF6FF7303EA01231A4382837047F0B52E
:100C40000C461546002200210026078C4EF6FF7C3C
:100C500007EA0C070784828B018C4FF6FF7707EABF
:100C6000043640F6FF473A404FF6FF7707EA05277C
:100C70003A434FF6FF7707EA03373A43D94FB84272
:100C80000ED0D94FB8420BD0B0F1804F08D0D74F1B
:100C9000B84205D0D64FB84202D0D64FB84206D19E
:100CA0004DF6FF77394046F48057394305E047F663
:100CB000FF57394044F48057394382830184F0BDA3
:100CC000828B4FF6F3731A408283828B0A438283AE
:100CD0007047F0B50C461546002200210026078C0F
:100CE0004FF6FF6C07EA0C070784828B018C4FF6E6
:100CF000FF7707EA04264FF60C773A404FF6FF7766
:100D000007EA03172F433A43B64FB8420ED0B64F07
:100D1000B8420BD0B0F1804F08D0B44FB84205D0E4
:100D2000B34FB84202D0B34FB84206D14FF6FF5787
:100D3000394046F48077394305E04FF2FF57394098
:100D400044F48077394382830184F0BD028B4FF2F3
:100D5000FF331A400283028B4FF6FF7303EA01232D
:100D60001A4302837047F0B50C4615460022002155
:100D70000026078C4FF6EF7C07EA0C070784028BEE
:100D8000018C4FF6FF7707EA041640F6FF473A401A
:100D90004FF6FF7707EA03373A434FF6FF7707EA44
:100DA00005273A438F4FB8420ED08F4FB8420BD031
:100DB000B0F1804F08D08D4FB84205D08C4FB8426B
:100DC00002D08C4FB84206D14FF6DF77394046F05B
:100DD0001007394305E04FF65F77394044F01007BC
:100DE000394302830184F0BD028B4FF6F3731A403E
:100DF0000283028B0A4302837047F0B50C46154606
:100E000000220021068C4FF6FE773E400684028BBE
:100E1000018C4FF60C7632407E1C06EA03162E43F8
:100E20003243704EB0420ED06F4EB0420BD0B0F194
:100E3000804F08D06D4EB04205D06D4EB04202D00A
:100E40006C4EB04206D14FF6FD76314044F00106BB
:100E5000314305E04FF6F576314044F00106314369
:100E600002830184F0BD70B505460C465D4885429D
:100E70000ED05D4885420BD0B5F1804F08D05B485D
:100E8000854205D05A48854202D05A48854200D151
:100E900000E000BF208850B92389A28861882846D5
:100EA000FFF7ABFFE1882846FFF79EFF25E020888B
:100EB00004280AD12389A28861882846FFF753FFB6
:100EC000E1882846FFF742FF17E0208808280AD16A
:100ED0002389A28861882846FFF7FBFEE18828461F
:100EE000FFF7EEFE09E02389A28861882846FFF714
:100EF000A6FEE1882846FFF795FE70BD2DE9F0417A
:100F000005460C4600260127608808B9022600E045
:100F10000026A088012801D1022700E001272088AF
:100F2000A0B92389A28861882846FFF766FFE18877
:100F30002846FFF759FF23893A4631462846FFF7EE
:100F400012FFE1882846FFF701FF13E02389A288FA
:100F500061882846FFF707FFE1882846FFF7F6FE7D
:100F600023893A4631462846FFF747FFE18828465D
:100F7000FFF73AFFBDE8F0810A884B881A438B8857
:100F80001A43CB881A430B891A434B891A438B891E
:100F90001A43A0F8442070474FF6FF71818000216A
:100FA0000180C18041800172704700210180418031
:100FB0008180C180018141818181C181704700218F
:100FC00001804180012181800021C1800181704721
:100FD0000021018041808180C18001814181818126
:100FE00070470000002C0140003401400004004024
:100FF00000080040000C004021B1028842F00102CC
:10100000028004E002884FF6FE731A4002807047A7
:1010100031B1B0F8442042F40042A0F8442005E089
:10102000B0F84420C2F30E02A0F8442070471AB171
:1010300083890B43838102E083898B4383817047DB
:101040008182704741EA0203A0F8483070471AB124
:1010500083890B43838102E083898B4383817047BB
:1010600001894FF6F8721140018170470A4600214C
:1010700001894FF68F73194011430181704730B5D4
:1010800004460D4629462046FFF7F0FF208940F030
:101090000700208130BD2DE9F04104460D4616467B
:1010A0001F46602D06D13B46012231462046FFF700
:1010B0005AFE05E03B46012231462046FFF79DFEE1
:1010C00029462046FFF7D2FF208940F00700208103
:1010D000BDE8F08130B50C4600210189C9B24FF658
:1010E000FF7505EA0325154325432943018130BDDA
:1010F0002DE9F04105460E46174698460024434622
:101100003A4631462846FFF7E5FF2C894FF6F8703E
:10111000044044F007044FF68F70044044F070041C
:101120002C81BDE8F081F0B504460D4616461F46F9
:101130003B46324629462046FFF7CCFF208940F443
:1011400080402081F0BD0185828270470A460021DF
:1011500001884FF68F731940114301807047F0B535
:101160000C4615461E460021002200230189028BF1
:10117000038C4FF6F877394021434FF6FC473A404D
:1011800040F201173A434FF6DD773B404FF6FF77C9
:1011900007EA06172F433B43018102830384F0BD16
:1011A0000A460021018B4FF68F73194011430183CA
:1011B00070470A460021018B48F6FF7319404FF62D
:1011C000FF7303EA02231943018370470A46002193
:1011D000818B4FF68F7319401143818370470A4604
:1011E0000021818B48F6FF7319404FF6FF7303EA25
:1011F000022319438183704721B1028842F08002A3
:10120000028004E002884FF67F731A400280704724
:1012100021B1828842F00402828004E082884FF685
:10122000FB731A408280704721B1828842F0080225
:10123000828004E082884FF6F7731A4082807047FC
:1012400021B1828842F00102828004E082884FF658
:10125000FE731A40828070470A460021018B4FF6C8
:10126000F77319401143018370470A460021018B2F
:101270004FF2FF7319404FF6FF7303EA022319433D
:10128000018370470A460021818B4FF6F77319409E
:101290001143818370470A460021818B4FF2FF730F
:1012A00019404FF6FF7303EA022319438183704705
:1012B0000A460021018B4FF6FB731940114301834D
:1012C00070470A460021018B4FF6FF3319404FF655
:1012D000FF7303EA02231943018370470A46002182
:1012E000818B4FF6FB7319401143818370470A4687
:1012F0000021818B4FF6FF3319404FF6FF7303EA4D
:1013000002231943818370470A460021018B4FF65F
:101310007F7319401143018370470A460021018BF6
:10132000C1F30E014FF6FF7303EA02231943018351
:1013300070470A460021818B4FF67F731940114395
:10134000818370470A460021818BC1F30E014FF65D
:10135000FF7303EA02231943818370470A46002181
:10136000018C4FF6FD7319401143018470470A4602
:101370000021018C4FF6F773194011430184704727
:101380000A460021018C4FF6DF7319404FF6FF73B8
:1013900003EA02131943018470470A460021018CB5
:1013A0004FF67F7319404FF6FF7303EA0213194398
:1013B000018470470A460021018C4FF6FF53194003
:1013C0004FF6FF7303EA02231943018470470A466C
:1013D0000021018C4FF2FF7319404FF6FF7303EAAF
:1013E00002231943018470470A460021018C4DF6FF
:1013F000FF7319404FF6FF7303EA02331943018468
:10140000704730B5002301248C40A3B2048C9C4368
:101410000484048C02FA01F5ADB22C43048430BD7F
:1014200030B5002304248C40A3B2048C9C43048474
:10143000048C02FA01F5ADB22C43048430BD70B5C2
:101440000346002000241846183001258D40ACB218
:101450001D8CA5431D8409B1082909D100EB610049
:10146000056825F0700505600568154305600EE008
:101470000D1FC5F34E052844056825F4E0450560B9
:1014800005684FF6FF7606EA02263543056070BD13
:1014900021B1028842F00202028004E002884FF685
:1014A000FD731A400280704721B1028842F00402A5
:1014B000028004E002884FF6FB731A4002807047F6
:1014C00021B1828842F08002828004E082884FF657
:1014D0007F731A408280704702884FF6F7731A4074
:1014E000028002880A430280704782884FF68F7319
:1014F0001A40828082880A438280704702894FF6B0
:10150000F8731A40028102890A43028170470289F6
:101510004FF67F731A40028102890A4302817047A5
:101520008184704781857047818670470187704745
:1015300081877047A0F84010704702884FF6FF433C
:101540001A40028002880A43028070470146888E52
:1015500070470146088F70470146888F70470146E3
:10156000B1F8400070470146888C70470146088DED
:10157000704702460020138A0B4201D0012000E090
:1015800000207047CA430282704730B502460020EF
:1015900000230024158A05EA0103958905EA010460
:1015A00013B10CB1012000E0002030BDCA4302821B
:1015B0007047000010B50446FB48844209D1012160
:1015C000880300F07FFB00214FF4804000F07AFB9D
:1015D00032E0F648844209D10121480400F07FFB43
:1015E00000214FF4003000F07AFB25E0F0488442FF
:1015F00009D10121880400F072FB00214FF4802002
:1016000000F06DFB18E0EB48844209D10121C804C9
:1016100000F065FB00214FF4002000F060FB0BE0C0
:10162000E548844208D10121080500F058FB00215B
:101630004FF4801000F053FB10BD2DE9F04786B049
:1016400005460E460024A24600BFA1460027B089E9
:1016500000B100BF2F462C8A4CF6FF700440F08882
:1016600004432C82AC894EF6F3100440B0883189D3
:101670000843718908430443AC81AC8A4FF6FF40AC
:101680000440B0890443AC8201A800F094FAC64833
:10169000874202D1DDF810A001E0DDF80CA0A88996
:1016A00010F4004F08D00AEBCA0000EB0A103168B2
:1016B0004900B0FBF1F807E00AEBCA0000EB0A10A2
:1016C00031688900B0FBF1F86420B8FBF0F0040148
:1016D0002009642101FB1089A88910F4004F08D06B
:1016E000322000EBC900B0FBF1F000F0070004432A
:1016F00008E0322000EB09106421B0FBF1F000F0AB
:101700000F0004432C8106B0BDE8F0874FF416515A
:10171000016000218180C18001810C214181002173
:101720008181704710B502460020108A4FF2FF03F6
:1017300018400B884C8823438C882343CC88234350
:101740001843108210BD0021018041808180C1803A
:10175000704721B1828942F40052828104E082897B
:101760004DF6FF731A4082817047F0B5034600249E
:10177000002600250020A1F510676A3F00D100BFB8
:101780001846C1F3421401F01F06012707FA06F5B7
:10179000012C01D10C3004E0022C01D1103000E00A
:1017A00014301AB107682F43076002E00768AF439F
:1017B0000760F0BD1AB1838A0B43838202E0838AFB
:1017C0008B4383827047028A4FF6F0731A4002827D
:1017D000028A0A430282704782894FF2FF731A40DD
:1017E000828182890A438281704721B1828942F0D5
:1017F0000202828104E082894FF6FD731A408281E1
:101800007047028A4FF6DF731A400282028A0A4347
:101810000282704721B1028A42F48042028204E0CF
:10182000028A4BF6FF731A4002827047C1F3080226
:101830008280704701468888C0F30800704781891C
:1018400041F0010181817047028BD2B20283028B89
:1018500042EA012202837047028B02F47F42028334
:10186000028B0A430283704721B1828A42F0200230
:10187000828204E0828A4FF6DF731A4082827047C8
:1018800021B1828A42F01002828204E0828A4FF6FD
:10189000EF731A408282704721B1828A42F00802B7
:1018A000828204E0828A4FF6F7731A408282704780
:1018B00021B1828942F40042828103E08289C2F32D
:1018C0000E028281704721B1828A42F400628282D4
:1018D00004E0828A4FF2FF731A4082827047828A44
:1018E0004FF6FB731A408282828A0A4382827047D3
:1018F00021B1828A42F00202828204E0828A4FF69B
:10190000FD731A408282704702460020B1F5007FC5
:1019100000D100BF13880B4201D0012000E000205D
:10192000704701F40072B2F5007F00D100BFCA43D6
:101930000280704770B50246002400230025002075
:10194000A1F510666A3E00D100BFC1F3421501F057
:101950001F03012606FA03F3012D02D196893340B5
:1019600006E0022D02D1168A334001E0968A334008
:101970000C12012606FA04F41688344013B10CB197
:10198000012000E0002070BD10B500220023A1F569
:1019900010646A3C00D100BF0A1201249440A3B233
:1019A000DC43048010BD00000038014000440040CA
:1019B00000480040004C004000500040DD480068F6
:1019C00040F00100DB49086008464068DA490840F9
:1019D000D849486008460068D8490840D549086099
:1019E0000846006820F4802008600846406820F41B
:1019F000FE0048604FF41F0088607047CD490968B9
:101A000021F48031CB4A11601146096821F480210C
:101A10001160B0F5803F03D0B0F5802F0ED106E005
:101A2000C449096841F48031C24A116007E0C149E4
:101A3000096841F4A021BF4A116000E000BF00BF67
:101A4000704710B501460022002300204A11012AE8
:101A500002D1B84C236806E0022A02D1B54C236AB1
:101A600001E0B44C636A01F01F02012494401C425F
:101A700001D0012000E0002010BD38B5002000900A
:101A80000024002500BF3120FFF7DBFF054600984A
:101A9000401C00900098B0F5A06F01D0002DF2D04E
:101AA0003120FFF7CEFF08B1012400E000242046DA
:101AB00038BD014600209F4A106820F0F80040EA37
:101AC000C100106070479E490860704702460020C0
:101AD000984B586820F47C1042EA01031843954B58
:101AE0005860704796490866704701460020914A41
:101AF000506820F003000843506070478D484068EC
:101B000000F00C007047014600208A4A506820F01F
:101B1000F00008435060704701460020854A506835
:101B200020F4E06008435060704701460020814A7D
:101B3000506820F4605040EAC1005060704729B1FD
:101B40007C4A527A02437B4B5A7204E0794A527AB9
:101B50008243784B5A7270477A4908607047014651
:101B60000020744A506820F4404008435060704799
:101B70000021754A11706F4A82F82010012802D0A6
:101B8000042808D103E001216F4A117004E0052107
:101B90006D4A117000E000BF00BF70476B490860DC
:101BA00070476449096A0143624A11627047674994
:101BB00044390860704730B500210022002400231A
:101BC0005C4D6D6805F00C0121B1042905D0082990
:101BD00023D105E05E4D056022E05D4D05601FE00C
:101BE000544D6D6805F47012524D6D6805F48034E3
:101BF000022505EB92421CB9564D554305600BE09A
:101C00004C4D6D6815F4003F03D0524D55430560AF
:101C100002E04F4D5543056002E04D4D056000BFA9
:101C200000BF444D6D6805F0F00109094A4D6B5C39
:101C30000568DD4045603F4D6D6805F4E061090AC7
:101C4000454D6B5C4568DD4085603A4D6D6805F437
:101C50006051C90A404D6B5C4568DD40C560354D3B
:101C60006D6805F44041890B3C4D6B5CC568B5FB64
:101C7000F3F5056130BD29B12E4A526902432D4B5F
:101C80005A6104E02B4A526982432A4B5A617047D9
:101C900029B1284A92690243264B9A6104E0254AF9
:101CA00092698243234B9A61704729B1214AD269D4
:101CB0000243204BDA6104E01E4AD26982431D4B85
:101CC000DA61704729B11B4AD2680243194BDA60C6
:101CD00004E0184AD2688243164BDA60704729B193
:101CE000144A12690243134B1A6104E0114A126943
:101CF0008243104B1A61704714494039086070479D
:101D00000F49C86470470B49C87170470948406A59
:101D100040F0807007494862704701460020054A3C
:101D200092680A4201D0012000E00020704701497A
:101D300088727047001002400000FFF8FFFFF6FEB7
:101D400000004242D8004242201002408004424239
:101D500000127A0000093D00140000202400002039
:101D600010B50446BE48844208D101218014FFF713
:101D7000A9FF0021A014FFF7A5FF16E0B94884428F
:101D800008D101210014FFF7AAFF00212014FFF75A
:101D9000A6FF0AE0B448844207D10121C013FFF72F
:101DA0009EFF0021E013FFF79AFF10BD10B500223F
:101DB000028802F441520B884C8823438C882343C9
:101DC000CC8823430C8923434C8923438C892343A8
:101DD000CC8923431A430280838B4FF2FF74234044
:101DE00083830B8A038210BD2DE9F04F85B0054631
:101DF0000C464FF0000902274FF000084FF0010B8E
:101E00000026B246A88B4FF240010840A88302206A
:101E10002884B5F81C90A068022801D100BF38E0E2
:101E2000A08810B94FF0010B01E04FF0020B8D4874
:101E3000854200D100E000BF6846FFF7BCFEDDF838
:101E400000A0E088B0F5007F0AD14FEA1A2000EB2D
:101E500080004000A168B0FBF1F0401D86B20BE0AD
:101E60004FEA4B10BAFBF0F000EB80004000A16895
:101E7000B0FBF1F0401D86B20A20B6FBF0F606F08A
:101E80000108A6EB0800C0F34F074FF6FF7000EA09
:101E90000828022F01DBFF2F02DD02274FF0000888
:101EA000E08840EA080038432884A088A1890843D4
:101EB000618808432188084340F4006040EA09092A
:101EC000A5F81C9005B0BDE8F08F0021018041808D
:101ED0008180C180018141818181C181072101828D
:101EE00070470021018041808180C1800221816092
:101EF00000218181704721B1028842F040020280B6
:101F000004E002884FF6BF731A400280704721B187
:101F1000828B42F48062828304E0828B4FF6FF332F
:101F20001A408283704730B5002400230C1101252C
:101F3000A540ABB21AB185881D43858002E0858833
:101F40009D43858030BD1AB183880B43838002E0B6
:101F500083888B43838070478181704701468889DD
:101F60007047A1F57E42FF3A04D0028842F48072A5
:101F7000028004E002884FF6FF631A400280704737
:101F800021B1828842F00402828004E082884FF608
:101F9000FB731A408280704702884FF2FF731A4029
:101FA000028002880A4302807047018841F4805110
:101FB0000180704721B1028842F40052028004E09F
:101FC00002884DF6FF731A400280704702460020D7
:101FD000012901D0108B00E0908A70470146088AE1
:101FE0007047B1F5804F04D1028842F480420280EC
:101FF00004E002884BF6FF731A40028070470246E5
:10200000002013890B4201D0012000E0002070471E
:10201000CA4302817047F0B5024600200024002325
:10202000002501F00F070126BE40B4B20B110126B6
:102030009E40B3B2968806EA03051689264202D06E
:102040000DB1012000E00020F0BD10B5002201F02C
:102050000F040123A3409AB2D343038110BD0000B3
:102060000030014000380040003C004001460020A4
:10207000FE4A106800F03800084310607047FB49C2
:10208000096821F00801F94A116011460968014305
:1020900011607047F549096821F01001F34A116099
:1020A00011460968014311607047F148EF494860E3
:1020B000F04848607047EE48EC494860ED48486099
:1020C0007047EA48006940F08000E84908617047BD
:1020D000E648006940F08000E44908617047042048
:1020E000E249C96811F0010F01D001200EE0DF497B
:1020F000C96811F0040F01D0022007E0DB49C9686C
:1021000011F0100F01D0032000E00420704700B54B
:1021100002460423FFF7E3FF034603E0FFF7DFFF78
:102120000346521E012B01D1002AF7D102B9052323
:10213000184600BD30B5044604254FF43020FFF7A3
:10214000E6FF0546042D17D1C848006940F002009B
:10215000C649086108464461006940F040000861D2
:102160004FF43020FFF7D3FF0546C048006941F621
:10217000FD710840BD490861284630BD10B50424F2
:102180004FF43020FFF7C3FF0446042C16D1B748A4
:10219000006940F00400B54908610846006940F054
:1021A000400008614FF43020FFF7B1FF0446AF480C
:1021B000006941F6FB710840AC490861204610BD3A
:1021C00000B502460423FFF78AFF034603E0FFF74A
:1021D00086FF0346521E012B01D1002AF7D102B916
:1021E0000523184600BD10B504244FF43020FFF736
:1021F000E7FF0446042C16D19C48006940F0040017
:102200009A4908610846006940F0400008614FF4AF
:102210003020FFF7D5FF04469448006941F6FB7172
:10222000084092490861204610BD00208F49C969C5
:1022300011F0020F01D0012000E00020704730B5FE
:10224000A5250424FFF7F1FF00B100254FF430204D
:10225000FFF75DFF0446042C3AD185488349886026
:10226000844888600846006940F0200008610846FC
:10227000006940F0400008614FF43020FFF747FF4D
:102280000446042C1BD17948006941F6DF710840EF
:10229000764908610846006940F0100008617648F8
:1022A0000580E002FFF733FF0446052C10D06F488D
:1022B000006941F6EF7108406C49086108E0052C9F
:1022C00006D06A48006941F6EF7108406749086125
:1022D000204630BD78B506460C4604250020009007
:1022E000E802FFF714FF0546042D24D15F4800697A
:1022F00040F001005D4908613480E802FFF707FF04
:102300000546042D10D1B01C0090200C00990880C7
:10231000E802FFF7FCFE05465448006941F6FE71ED
:1023200008405249086106E05048006941F6FE71D4
:1023300008404E490861284678BD70B504460D46F0
:102340000426F002FFF7E3FE0646042E11D14748AB
:10235000006940F00100454908612580F002FFF75F
:10236000D6FE06464148006941F6FE7108403F49E5
:102370000861304670BD70B505460E460424E00283
:10238000FFF7C5FE0446042C17D139483749886049
:10239000384888600846006940F0100008612E80C7
:1023A000E002FFF7B4FE0446052C06D02F48006972
:1023B00041F6EF7108402D490861204670BD2DE9B6
:1023C000F04304464FF6FF763746B046B146042543
:1023D000E443E6B2C4F30727C4F307484FEA14699D
:1023E000E802FFF794FE0546042D49D120481F4915
:1023F0008860204888600846006940F01000086145
:10240000FF2E06D01C4808300680E802FFF77FFE4A
:102410000546042D08D1FF2F06D017480A30078043
:10242000E802FFF774FE0546042D0AD1B8F1FF0F4C
:1024300007D011480C30A0F80080E802FFF767FED3
:102440000546042D0AD1B9F1FF0F07D00A480E3016
:10245000A0F80090E802FFF75AFE0546052D0FD0C0
:102460000248006941F6EF71084007E00020024091
:1024700023016745AB89EFCD00F8FF1F664908616E
:102480002846BDE8F08330B5054604244FF43020DB
:10249000FFF73DFE0446042C41D160485E49886048
:1024A0005F4888600846006940F0200008610846DF
:1024B000006940F0400008614FF43020FFF727FE2C
:1024C0000446042C22D15448006941F6DF710840CB
:1024D000514908610846006940F0100008611DB1CB
:1024E00000205049088002E0A5204E4908804FF4A2
:1024F0003020FFF70CFE0446052C10D0464800693A
:1025000041F6EF7108404449086108E0052C06D007
:102510004148006941F6DF7108403F4908612046A3
:1025200030BDF0B505460E46174604243B483A49EF
:1025300088603B488860E002FFF7E9FD0446042C10
:1025400019D13548006940F010003349086147F05F
:10255000F800304328433349891C0880E002FFF724
:10256000D6FD0446052C06D02B48006941F6EF71D4
:102570000840294908612046F0BD2748C069800805
:1025800070472548006A704700202349096811F008
:10259000200F01D0012000E00020704729B11E4A21
:1025A000126902431C4B1A6104E01B4A1269824300
:1025B000194B1A61704701460020012908D1164ABB
:1025C000D26912F0010F01D0012008E0002006E0DE
:1025D000114AD2680A4201D0012000E00020704771
:1025E0000D49C860704704200B49C96811F0010FFC
:1025F00001D001200EE00849C96811F0040F01D094
:10260000022007E00449C96811F0100F01D003202F
:1026100000E00420704700000020024023016745CD
:10262000AB89EFCD00F8FF1F10B50446FA4884428D
:1026300008D101214015FFF745FB00216015FFF788
:1026400041FB17E0F548844208D101210015FFF74E
:1026500039FB00212015FFF735FB0BE0F0488442E1
:1026600008D10121C803FFF72DFB00214FF40040E2
:10267000FFF728FB10BD30B502460020002350684C
:10268000E84C20400D790C6844EA05242043506052
:102690009068E54C2040D1E902542C434D7944EA3E
:1026A000450420439060D06A20F470000C7C641EC6
:1026B000E4B2234340EA0350D06230BD0021016000
:1026C000017141718160C16001210174704721B1C4
:1026D000826842F00102826003E0826822F0010217
:1026E0008260704721B1826842F48072826003E0A8
:1026F000826822F480728260704710B50023CBB2EA
:102700001AB144681C43446002E044689C4344603E
:1027100010BD816841F008018160704701460020CA
:102720008A6812F0080F01D0012000E000207047F5
:10273000816841F0040181607047014600208A6889
:1027400012F0040F01D0012000E00020704721B1F9
:10275000826842F4A002826003E0826822F4A00250
:1027600082607047014600208A6812F4800F01D011
:10277000012000E00020704710B50A460021002328
:10278000416821F46041531E41EA4331416010BD6C
:1027900021B1426842F40062426003E0426822F4E0
:1027A000006242607047F0B504460D4600200021EB
:1027B000092D11DDE068A5F10A0606EB460707269C
:1027C00006FA07F18843A5F10A0606EB460603FA66
:1027D00006F10843E0600CE0206905EB4507072699
:1027E00006FA07F1884305EB450603FA06F10843AC
:1027F0002061072A0FDA606B561E06EB86071F263C
:1028000006FA07F18843561E06EB860605FA06F11E
:102810000843606322E00D2A0FDA206BD61F06EB17
:1028200086071F2606FA07F18843D61F06EB8606A1
:1028300005FA06F10843206310E0E06AA2F10D06F4
:1028400006EB86071F2606FA07F18843A2F10D065C
:1028500006EB860605FA06F10843E062F0BD21B1F9
:10286000826842F48012826003E0826822F480125F
:10287000826070470146C86C80B2704766484C3031
:102880000068704721B1426842F48062426003E010
:10289000426822F480624260704721B1426842F48B
:1028A0008052426003E0426822F4805242607047E6
:1028B0000A460021816821F4E0411143816070479C
:1028C00021B1826842F40042826003E0826822F40F
:1028D00000428260704721B1826842F40212826035
:1028E00003E0826822F402128260704701460020F1
:1028F0008A6812F4001F01D0012000E00020704718
:10290000F0B504461546002000220026092911DDF5
:10291000E068A1F10A0707EB470C072707FA0CF25A
:102920009043A1F10A0707EB470703FA07F21043A8
:10293000E0600CE0206901EB410C072707FA0CF27C
:10294000904301EB410703FA07F210432061A06BAB
:10295000C0F30156EF1C06F1010CA7EB0C0707EBC7
:10296000870C1F2707FA0CF29043EF1C06F1010CAD
:10297000A7EB0C0707EB870701FA07F21043A063E8
:10298000F0BD10B50A4600210023816B21F44011EF
:10299000531E41EA0351816310BD08B50023009323
:1029A0000090009B0B440093009B1A6008BD08B583
:1029B000024600200090009201F12800009B18447C
:1029C00000900098006880B208BD0A460021416866
:1029D000164B194011434160704741628262704753
:1029E0000A460021416821F01F01114341607047F0
:1029F00040B109490831096841F40001064A08322A
:102A0000116007E004490831096821F40001024A15
:102A10000832116070470000002401400028014086
:102A2000003C0140FFFEF0FFFDF7F1FFFFFD3FFF1F
:102A30000246002013680B4201D0012000E0002074
:102A40007047CA430260704770B5024600200023F9
:102A500000240B125568CEB205EA060415681D4223
:102A600002D00CB1012000E0002070BD00220A124B
:102A7000D34303607047000001684FF6FE721140B7
:102A800001600021016041608160C1608C49884221
:102A900008D18B490839496841F00F01884A083A42
:102AA00051608AE086491431884208D18449083946
:102AB000496841F0F001824A083A51607DE080495E
:102AC0002831884208D17E490839496841F470614B
:102AD0007B4A083A516070E079493C31884208D11C
:102AE00077490839496841F47041754A083A51609C
:102AF00063E073495031884208D171490839496807
:102B000041F470216E4A083A516056E06C496431D4
:102B1000884208D16A490839496841F47001684A15
:102B2000083A516049E066497831884208D16449E1
:102B30000839496841F07061614A083A51603CE0E7
:102B40006049884206D1011F096841F00F01021F48
:102B5000116032E05B491431884208D15949091F9C
:102B6000096841F0F001574A121F116025E05549EC
:102B70002831884208D15349091F096841F470611E
:102B8000504A121F116018E04E493C31884208D16A
:102B90004C49091F096841F470414A4A121F1160EB
:102BA0000BE048495031884207D14649091F09685E
:102BB00041F47021434A121F1160704710B5002282
:102BC000026847F6F0739A430C6A8B6823430C69DA
:102BD00023434C6923438C692343CC6923434C6AC8
:102BE00023438C6A23431A430260CB6843600B681B
:102BF00083604B68C36010BD00210160416081604B
:102C0000C160016141618161C161016241628162B2
:102C1000704721B1026842F00102026004E00268DC
:102C20004FF6FE731A40026070471AB103680B43F7
:102C3000036002E003688B430360704741607047A4
:102C40000146486880B2704701460020002211F01A
:102C5000805F03D01B4B083B1A6802E0184B083B0F
:102C60001A680A4201D0012000E00020704710F0ED
:102C7000805F03D01349091F086002E0104908393A
:102C80004860704701460020002211F0805F03D0A9
:102C90000C4B083B1A6802E0094B083B1A680A42D1
:102CA00001D0012000E00020704710F0805F03D0C9
:102CB0000449091F086002E001490839486070476B
:102CC00008000240080402400948804709480047BC
:102CD000FEE7FEE7FEE7FEE7FEE7FEE7FEE7FEE7CC
:102CE000FEE7FEE704480549054A064B7047000029
:102CF00065020008ED00000828040020280A0020D2
:102D0000280600202806002008B501210420FEF72F
:102D1000BFFF4FF48070ADF8000003208DF8020073
:102D200018208DF803006946C448FDF7E9FB06202A
:102D3000FEF7E9FF08BD08B54FF4A060FDF712FBF0
:102D400025208DF8000003208DF801008DF8020089
:102D500001208DF803006846FDF709FB1D208DF862
:102D6000000002208DF801008DF8020001208DF88E
:102D700003006846FDF7FBFA08BD10B501F029FA1B
:102D800010BD10B5AE4A128891B2AE4A108801F05B
:102D9000A3FAAB4A528891B2AA4A508801F09CFA31
:102DA000A74A928891B2A74A908801F095FA10BD7F
:102DB00010B5A4490888A24901F0ECF8A149488857
:102DC0009F49891C01F0E6F89E4988889C49091DA5
:102DD00001F0E0F810BD10B59B4A128891B2994AF3
:102DE000D08801F079FA984A528891B2954A1089B0
:102DF00001F072FA944A928891B2924A508901F095
:102E00006BFA10BD10B58F49C8888F4901F0C2F820
:102E10008C4908898C49891C01F0BCF8894948898A
:102E20008949091D01F0B6F810BD70B587490868D9
:102E3000874904F043FB054604F0C0FA84B2814997
:102E40008889214601F048FA80498868804904F061
:102E500035FB054604F0B2FA84B27A49C8892146A6
:102E600001F03AFA79490869794904F027FB0546E7
:102E700004F0A4FA84B27349088A214601F02CFABE
:102E800074490868724904F019FB054604F096FA83
:102E900084B26C49488A214601F01EFA6D4988685F
:102EA0006B4904F00BFB054604F088FA84B26549CF
:102EB000888A214601F010FA66490869644904F0DD
:102EC000FDFA054604F07AFA84B25E49C88A2146C2
:102ED00001F002FA604908685D4904F0EFFA05461E
:102EE00004F06CFA84B25749088B214601F0F4F9DA
:102EF00059498868564904F0E1FA054604F05EFA3B
:102F000084B25049488B214601F0E6F952490869DC
:102F10004F4904F0D3FA054604F050FA84B2494907
:102F2000888B214601F0D8F970BD38B545498889AC
:102F3000694601F02FF8BDF8000004F077FA044666
:102F4000434904F029F9414908603E49C889694666
:102F500001F020F8BDF8000004F068FA04463C498E
:102F600004F01AF9394988603649088A694601F03F
:102F700011F8BDF8000004F059FA0446344904F091
:102F80000BF9324908612F49488A694601F002F875
:102F9000BDF8000004F04AFA04462D4904F0FCF89C
:102FA0002C4908602749888A694600F0F3FFBDF87C
:102FB000000004F03BFA0446254904F0EDF82549E9
:102FC00088602049C88A694600F0E4FFBDF8000027
:102FD00004F02CFA04461E4904F0DEF81D4908618D
:102FE0001849088B694600F0D5FFBDF8000004F0D1
:102FF0001DFA0446164904F0CFF817490860114934
:10300000488B694600F0C6FFBDF8000004F00EFAD8
:1030100004460F4904F0C0F80F4988600949888BBD
:10302000694600F0B7FFBDF8000004F0FFF9044660
:10303000074904F0B1F80849086138BD00080140AB
:10304000840000202A0000207E0000206803002069
:103050000000C84288030020A80300203EB50446B3
:1030600001210220FEF721FE0F48FDF795FBADF888
:1030700004404720ADF800000020ADF80600ADF890
:10308000020069460848FDF75BFC01210648FEF78F
:1030900079FA012211460448FDF7C9FF01210248CF
:1030A000FDF7AAFF3EBD00000004004010B588B047
:1030B000044601218803FEF7EBFD01210420FEF701
:1030C000E7FD4FF40070ADF8040003208DF8060012
:1030D00018208DF8070001A99A48FDF711FA4FF45E
:1030E0008060ADF8040003208DF8060004208DF800
:1030F000070001A99348FDF703FA04940020ADF8F6
:103100001400ADF81600ADF81800ADF81C000C2046
:10311000ADF81A000020ADF80800ADF80A004FF431
:103120000070ADF80C000020ADF80E0004A9864830
:10313000FEF783FA02A98448FEF7F4FA012240F26E
:1031400025518148FEF711FB01217F48FEF701FB65
:1031500008B010BD7C48008810F4587F01D07A4830
:1031600000887948008810F0800F1ED076480C3017
:10317000008810F0800F18D0744801780078401C47
:10318000724A10707248405C6F49091D08801046F1
:10319000007870490978884207D16B480C30008864
:1031A00020F0800068490C3108806748008810F0E2
:1031B000200F36D06449091D0988C8B266490978CC
:1031C00059B98A2816D16549654A127801EB42112E
:1031D00008700121604A11700CE06049604A127861
:1031E00001EB42115C4A127888545B490978491C0A
:1031F000594A117058490978202911D10021564A9D
:1032000011705749097831B10021554A11700121D7
:10321000544A117004E00121514A1170524A117050
:1032200000BF704710B504464A4801780078401C3A
:10323000484A107046484454012240F227714248DF
:10324000FEF793FA204610BD31B500249DF8011019
:10325000404802780078401C3E4B18703C4881542E
:103260009DF80020184601780078401C18703848F6
:103270004254012240F227713348FEF776FA9DF856
:1032800001002044C4B29DF800002044C4B220468E
:1032900038BD31B500243549009808600846C1782A
:1032A0002C4802780078401C2A4B1870284881541A
:1032B0002E488178184602780078401C18702448FF
:1032C00081542A484178184602780078401C1870CA
:1032D0001F48815425480178184602780078401C20
:1032E00018701B488154012240F227711648FEF7DE
:1032F0003CFA9DF803002044C4B29DF8020020442B
:10330000C4B29DF801002044C4B29DF800002044DE
:10331000C4B2204638BD10B504460FE020780D2811
:1033200002D1FFF77FFF08E020780A2802D1FFF7DB
:1033300079FF02E02078FFF775FF641C20780028F1
:10334000ECD110BD000801400038014050000020C1
:10335000EC0000205100002053000020EB01002071
:10336000520000205500002054000020580000208A
:1033700000B587B001210820FEF78AFC01218803EF
:10338000FEF793FC4FF46040ADF8040001208DF887
:10339000060018208DF8070001A93E48FDF7B0F897
:1033A00001212020FEF774FC4FF40050ADF804001A
:1033B00001208DF8060010208DF8070001A936487D
:1033C000FDF79EF801210820FEF762FC4FF48050C3
:1033D000ADF8040001208DF8060010208DF80700DC
:1033E00001A92C48FDF78CF801212020FEF750FCA4
:1033F0004FF48050ADF8040001208DF806004820FD
:103400008DF8070001A92448FDF77AF84FF48051A0
:103410002048FDF720F90020ADF808004FF4827035
:10342000ADF80A000020ADF80C00ADF80E00ADF8C4
:1034300010004FF40070ADF812001020ADF8140029
:103440000020ADF816000720ADF8180002A91348B7
:10345000FEF7ACFC01211148FEF74DFD07B000BDA1
:1034600010B5044600BF02210C48FEF7C8FD002835
:10347000F9D021460948FEF76FFD00BF012107483A
:10348000FEF7BDFD0028F9D00448FEF767FDC0B285
:1034900010BD0000000C0140001401400038004045
:1034A000002109E0002201E0531C9AB242F23413D9
:1034B0009A42F9DB4B1C99B28142F3DB704708B5A5
:1034C00001210420FEF7E4FB01210820FEF7E0FBC8
:1034D00001210846FEF7DCFB01215B48FDF7DFF820
:1034E00001215A48FDF7DBF83820ADF80000032031
:1034F0008DF8020010208DF8030069465448FCF74F
:10350000FFFF4FF48050ADF8000003208DF802005B
:1035100010208DF8030069464E48FCF7F1FF08BD06
:1035200010B538214A48FDF798F84FF480514948C2
:10353000FDF793F86420FFF7B3FF38214448FDF707
:103540008AF84FF480514348FDF785F86420FFF76F
:10355000A7FF38213E48FDF780F84FF480513D48E1
:10356000FDF77BF86420FFF79BFF38213848FDF713
:1035700072F84FF480513748FDF76DF86420FFF77B
:103580008FFF38213248FDF768F84FF480513148F9
:10359000FDF763F86420FFF783FF38212C48FDF71F
:1035A0005AF84FF480512B48FDF755F86420FFF787
:1035B00077FF38212648FDF750F84FF48051254811
:1035C000FDF74BF86420FFF76BFF38212048FDF72B
:1035D00042F84FF480511F48FDF73DF86420FFF793
:1035E0005FFF38211A48FDF738F84FF48051194829
:1035F000FDF733F86420FFF753FF38211448FDF737
:103600002AF84FF480511348FDF725F86420FFF79E
:1036100047FF38210E48FDF720F84FF480510D4840
:10362000FDF71BF86420FFF73BFF38210848FDF742
:1036300012F84FF480510748FDF70DF86420FFF7AA
:103640002FFF10BD704770470004300000023000AB
:10365000000C014000080140E64A117800BF01EB70
:103660004002E44B1B689A42F9D8704710B5E24813
:103670004078E149097840EA0120E0490988401A88
:1036800000B2DF490880DC48C078DB49897840EA2D
:103690000120DA494988401A00B2D9494880D64801
:1036A0004079D549097940EA0120D4498988401AEE
:1036B00000B2D3498880D048407ACF49097A40EA9D
:1036C0000120D0490988401A00B2CF490880CA4871
:1036D000C07AC949897A40EA0120CA494988401A12
:1036E00000B2C9494880C448407BC349097B40EACD
:1036F0000120C4498988401A00B2C3498880C34860
:103700000078002856D1C248007870B90020BD4921
:10371000088048808880BF490860BF490860BF4969
:1037200008600120BA49087010BDB748B0F9000020
:10373000B84909680844B7490860B348B0F90200BD
:10374000B54909680844B4490860AF48B0F90400B5
:10375000B24909680844B1490860AD480078C828F2
:1037600023D1AC480068AA49097890FBF1F000B277
:10377000A4490880A8480068A549097890FBF1F0A1
:1037800000B2A0494880A5480068A149097890FB8B
:10379000F1F000B29B49888000209D49087001200B
:1037A0009A490870FFF717FBBEE799480078401C5C
:1037B000974908709A48007800284ED199480078B7
:1037C00070B900208D49088048808880964908603B
:1037D0009649086096490860012092490870A3E75D
:1037E0008748B0F900009049096808448E4908608C
:1037F0008348B0F902008D49096808448B49086084
:1038000088480078C82823D1874800688549097806
:1038100090FBF1F000B27949088084480068814942
:10382000097890FBF1F000B2744948808048006844
:103830007C49097890FBF1F000B270498880002043
:1038400078490870012076490870FFF79AFA6BE70B
:1038500074480078401C7349087000BF64E710B5D5
:10386000654B0E223B21D02002F05CFA10BDF8B56A
:1038700006460F4614461D466B4601223946304621
:1038800002F050FA2DB10120A0409DF8001008432D
:1038900005E00120A0409DF8001021EA0000C0B220
:1038A00000909DF800203946304602F01AFAF8BD23
:1038B0002DE9F8430746884614461D46089E6B4688
:1038C00001224146384602F02DFA601CFF2101FA20
:1038D00000F0C4F108012944491EFF220A411043A7
:1038E00000F0FF09C5F1080006FA00F0C6B2C4F105
:1038F000070006419DF8000000EA090000909DF8CD
:103900000000304300909DF800204146384602F008
:10391000E8F9BDE8F88338B50446032302226B2199
:10392000D0200094FFF7C4FF38BD38B50446022309
:1039300004221B21D0200094FFF7BAFF38BD38B510
:103940000446022304221C21D0200094FFF7B0FF7C
:1039500038BD10B50446234606226B21D020FFF760
:1039600086FF10BD10B50446234605226A21D020EB
:10397000FFF77DFF10BD10B5044623460122372115
:10398000D020FFF774FF10BD38B504460323022290
:103990001A21D0200094FFF78BFF38BD10B500200E
:1039A000FFF7D7FFC820FFF757FE0120FFF7B3FF4F
:1039B0003220FFF751FE0320FFF7B7FF3220FFF759
:1039C0004BFE0120FFF7BBFF3220FFF745FE03202F
:1039D000FFF7DAFF3220FFF73FFE0020FFF7C2FFBC
:1039E0003220FFF739FE0120FFF7C5FF3220FFF735
:1039F00033FE10BD4C0000202B020020840000206C
:103A00008A0000207E000020900000205C00002042
:103A10006C0000206000002064000020680000208E
:103A20005D0000207C000020700000207400002059
:103A30007800002030B5B0F57A7F01DB40F2E73046
:103A4000B1F57A7F01DB40F2E731B2F57A7F01DB35
:103A500040F2E732B3F57A7F01DB40F2E73300282A
:103A600000DA0020002900DA0021002A00DA002212
:103A7000002B00DA00234FF08045A88629874C4DA3
:103A80002A802D1D2B8030BD10B501210846FEF780
:103A90000CF94FF08040FCF77FFE23204549088059
:103AA0000020488040F2E73088800020C8800872FB
:103AB0004FF08040FCF744FF60203F490880012020
:103AC000488004208880002008814FF4807088811D
:103AD0008005FCF772FF38494FF08040FCF7AFFFDC
:103AE00001218807FDF788FA01218807FDF790FA80
:103AF00010BD10B501214803FEF7CAF82C48343830
:103B0000FCF74AFE23202D4908800020488040F21F
:103B1000E73088800020C880087225483438FCF7D8
:103B20000FFF6020264908800120488004208880FB
:103B3000002008814FF4807088811D483438FCF7DC
:103B40003CFF1F491A483438FCF779FF0121184817
:103B50003438FDF751FA012115483438FDF758FA89
:103B600010BD08B501210420FEF792F80320ADF83E
:103B700000008DF8020018208DF8030069461148F6
:103B8000FCF7BEFC01211020FEF782F8C020ADF842
:103B9000000003208DF8020018208DF8030069460C
:103BA0000948FCF7ADFCFFF76FFFFFF7A2FF08BD68
:103BB000343401403A0200204E020020440200202A
:103BC0005E020020000801400010014070B505466B
:103BD0000C464FF480519448FCF73FFD2846FFF710
:103BE0003FFC06462046FFF73BFC4FF480518E48D1
:103BF000FCF731FD304670BD70B504464FF480517E
:103C00008948FCF72AFD2046FFF72AFC0020FFF731
:103C100027FC05464FF480518348FCF71CFD2846DD
:103C200070BD2DE9F04107460D4616464FF4805110
:103C30007D48FCF712FD3846FFF712FC8046002451
:103C400004E0285DFFF70CFC601CC4B2B442F8DB52
:103C50004FF480517448FCF7FEFC4046BDE8F0810B
:103C60002DE9F04107460D4616464FF480516E4847
:103C7000FCF7F3FC3846FFF7F3FB8046002405E031
:103C80000020FFF7EDFB2855601CC4B2B442F7DBFF
:103C90004FF480516448FCF7DEFC4046BDE8F081FB
:103CA00070B504460D464FF400516048FCF7D5FC52
:103CB00005225F492A20FFF7B4FF2A462146A020AB
:103CC000FFF7AFFF4FF400515848FCF7C4FC70BD3C
:103CD00070B504460D464FF400515448FCF7BDFC46
:103CE0002A462146A820FFF79CFF4FF400514F4879
:103CF000FCF7B1FC70BD1CB505224D493020FFF723
:103D000090FF052269461020FFF7AAFF002408E073
:103D10001DF804004649095D884200D003E0601C9C
:103D2000C4B2052CF4DB00BF052C01D101201CBD61
:103D30000020FCE770B504460D464FF400513B48A7
:103D4000FCF78BFC05223B492A20FFF76AFF05227E
:103D500037493020FFF765FF01212120FFF736FFAB
:103D600001212220FFF732FF1A212420FFF72EFF26
:103D700028212520FFF72AFF0F212620FFF726FF05
:103D8000012C08D120213120FFF720FF0F21202016
:103D9000FFF71CFF41E0022C08D120213120FFF762
:103DA00015FF0E212020FFF711FF36E0032C1AD15A
:103DB000FF21E120FFF70AFFFF21E220FFF706FFC6
:103DC0000F212020FFF702FF5020FFF749FB73204F
:103DD000FFF746FB01213C20FFF7F8FE07213D20BD
:103DE000FFF7F4FE19E00E212020FFF7EFFEFF2180
:103DF000E120FFF7EBFEFF21E220FFF7E7FE502076
:103E0000FFF72EFB7320FFF72BFB01213C20FFF770
:103E1000DDFE07213D20FFF7D9FE4FF40051034896
:103E2000FCF719FC70BD0000000C014000140140BB
:103E3000960000209B000020034606210622FA4837
:103E40000188FA480288A3B1012B1AD132B9A1F531
:103E50006E40EE3800D170470120FCE739B9A2F579
:103E60006E40EE3801D10120F5E70020F3E7AB20EA
:103E7000F1E709B90020EEE70AB90120EBE7AB2032
:103E8000E9E70020E7E770B5042600240120FFF7EA
:103E9000D3FF0446AB2C06D1E34800EBC420E44931
:103EA0000860AB2070BDE04800EBC420E04908602A
:103EB000601CDD49891E01EBC0250CE0DC48006870
:103EC0000068401C02D104263046EBE7D848006861
:103ED000001DD7490860D6480068A842EED380206C
:103EE000E0E710B50424D048FEF724F90446042C7A
:103EF00001D0204610BD0021CB48FEF71EFA044633
:103F0000042C01D02046F5E7C848FEF713F9044613
:103F10002046EFE72DE9F04104460F460425002630
:103F2000DFF80883A8F101080120FFF785FF0646A6
:103F3000AB2E01D1BDE8F081701CBB49891E01EB9D
:103F4000C02821E0BA4800680068401C17D13946F3
:103F5000B7480068FEF7F1F90546042D01D0284660
:103F6000E8E72146B2480068801CFEF7E6F90546FE
:103F7000AF480068001DAE4908602846DAE7AC4843
:103F80000068001DAA490860A94800684045D9D3C7
:103F90008020CFE72DE9F04706460F46002545F281
:103FA00055584FF00109A04CA2460020FFF744FFEE
:103FB0000546AB2D01D1BDE8F0879B4800EBC52A33
:103FC0009B480068841E0AE0B4F80080B04505D123
:103FD00034F8020C38804FF0000904E0241F0AF185
:103FE00002008442F0D800BF4846E4E72DE9F047DC
:103FF0004FF0060A062600250027A8464FF0FF3995
:104000008948B0F800A0894806885FEA0A0074D0A1
:10401000A0F56E40EE382AD0A0F5885011386DD149
:1040200046B98148FEF786F80446042C1ED0204687
:10403000BDE8F087A6F56E40EE3810D17A48FEF75D
:1040400079F80446042C01D02046F1E70021774896
:10405000FEF773F90446042C08D02046E8E7FFF782
:1040600040FF0446042C01D02046E1E7AEE07EBBD1
:10407000002522E06C48C0886E4931F8151088424E
:1040800001D10FFA85F94D4515D06A4931F815006F
:104090006949FFF77FFF8046B8F1010F0BD06549F2
:1040A00031F8150064490988FFF734FF0746042FEB
:1040B00001D03846BCE7681C85B20F2DDADB002141
:1040C0005948FEF73AF90446042C02D02046AFE7DF
:1040D00007E05648FEF72EF80446042C1FD0204671
:1040E000A6E7A6F57F40FF3812D15048FEF722F828
:1040F0000446042C03D020469AE711E05EE000213C
:104100004948FEF71AF90446042C08D020468FE7E8
:10411000FFF7E7FE0446042C01D0204688E755E06F
:1041200036B9FFF7DEFE0446042C46D020467FE772
:10413000A6F57F40FF3807D13C48FDF7FBFF04465A
:10414000042C3AD0204673E7002523E03748801D31
:104150000088384931F81510884201D10FFA85F9E5
:104160004D4515D0334931F815003349FFF712FF9B
:104170008046B8F1010F0BD02E4931F815002E49B9
:104180000988FFF7C7FE0746042F01D038464FE7DE
:10419000681C85B20F2DD9DB00212448FEF7CDF82D
:1041A0000446042C01D0204642E71F48FDF7C2FF19
:1041B0000446042C01D020463AE707E0FFF791FEC1
:1041C0000446042C01D0204632E700BF00BF042083
:1041D0002EE710B5FFF70AFF0446FFF754FE20460E
:1041E00010BD2DE9F84F074689460425DFF84CA09D
:1041F0000D4800904FF00008002400264FF0000BFF
:104200000020FFF719FE8046B8F1010F04D1DFF856
:1042100018A00648009016E0B8F1000F10D1DFF8A2
:104220000CA0014800900EE0000001080008010801
:10423000A40000202A000020A0000020FF030108A5
:10424000AB20BDE8F88F4EF6EE615046FEF775F8EC
:104250000546042D01D02846F3E7FFF714FE494632
:104260003846FFF757FE0646042E01D03046E8E7F1
:1042700000241CE0214830F81400B84215D01F4932
:1042800031F814001E49FFF785FE8346BBF1010F8C
:104290000BD01A4931F8140019490988FFF73AFE82
:1042A0000646042E01D03046CBE7601C84B20F2CAA
:1042B000E0DB0098FDF73EFF0546042D01D02846BF
:1042C000BFE700215046FEF738F80546042D01D01F
:1042D0002846B6E72846B4E770B505460E460024E2
:1042E00031462846FFF716FE0446802C04D131469D
:1042F0002846FFF776FF0446204670BD2A000020BE
:10430000A000002008B501210846FDF7B4FC0121FA
:104310004FF40270FDF7BCFC0220ADF80000002055
:104320008DF8030069463748FCF7EAF808BD00B588
:1043300091B03548FEF7A0FB34480690344807900A
:10434000002008900120099000200A900B904FF463
:1043500080700C9080000D9020200E9000020F9035
:104360000020109006A92848FEF728FC01212648C5
:10437000FEF74FFC0020019001208DF808008DF819
:1043800009004FF4602003900020049001208DF874
:10439000140001A91D484C38FEF76DF905230122D0
:1043A00009211A484C38FEF7FEF9012117484C380C
:1043B000FEF798F9012115484C38FEF788F91348A3
:1043C0004C38FEF7A6F900BF10484C38FEF7A6F9A6
:1043D0000028F9D10D484C38FEF7AAF900BF0B4868
:1043E0004C38FEF7AAF90028F9D1012107484C38CA
:1043F000FEF7ADF911B000BD10B5FFF783FFFFF771
:1044000096FF10BD000C0140080002404C24014002
:10441000A800002010B54FF4FA70FEF71FFEFFF75A
:10442000A0FBFEF7A5FFFEF786FC28210420FFF77E
:1044300081FCFFF760FC18B110A0FEF76CFF02E0F2
:1044400014A0FEF768FF01F0F8FBFFF7A7FAFFF7EB
:10445000D3FFFDF72AFEFEF790FCFEF7A9FCFEF75E
:10446000D1FCFEF762FD10BD002011490870FFF776
:10447000D1FF01200E49087000BFFEE7464C595F8E
:104480004E524632344C3031204953204F4B20217C
:104490000D0A0000464C595F4E524632344C3031C2
:1044A000204953204E4F54204F4B20210D0A00002D
:1044B0002800002010B5FEF74DFE10BD7047704774
:1044C0001CB53A48008810F0010F60D04FF6FE701E
:1044D0003649088036480068401C35490860354830
:1044E000007800B91CBD34480078401C324908707F
:1044F00032480078401C3149087031480078401C2F
:104500002F4908702F480078401C2E4908702E480B
:104510000078401C2C49087000F05BFB26480078AE
:10452000022804D100202449087000F017FD234818
:104530000078042814D100202049087001F032F8D6
:104540002248006822490968224BCDE900109A6888
:1045500059681868204B1B6801F098F800F07CFB44
:10456000174800780A2802D100201549087015481C
:104570000078142802D100201249087012480078EF
:10458000462804D100201049087000F0E9FB00BF64
:10459000A8E7704700BFFEE700BFFEE700BFFEE7E9
:1045A00000BFFEE770477047704770471004004037
:1045B0004C00002028000020AA000020AB000020B2
:1045C000AC000020AD000020AE000020B8000020AC
:1045D000B4000020E4020020B0000020FE48007873
:1045E00088B9FE48B0F9040040F24C4188420ADA2A
:1045F000FA48B0F90600884205DAF9480088401CFC
:10460000F749088002E00020F5490880F448008856
:10461000642802DD0120F0490870EF480078012885
:1046200013D1EE48B0F9040040F24C4188420CDA54
:10463000EA48B0F9060040F26C71884205DDE948AD
:104640000088401CE749088002E00020E549088016
:10465000E4480088642802DD0020DF4908707047C4
:10466000F8B58820E0490870AC2048701C2088709C
:10467000AD20C870DD490868DD4902F01FFF06461D
:1046800002F09CFE80B200909DF80100D6490871AE
:104690009DF800004871D5498868D54902F00EFFA1
:1046A000064602F08BFE80B200909DF80100CE49D4
:1046B00088719DF80000C871CC490869CC4902F0A6
:1046C000FDFE064602F07AFE80B200909DF80100E1
:1046D000C54908729DF800004872C6490868C44977
:1046E00002F0ECFE064602F069FE80B200909DF8F2
:1046F0000100BD4988729DF80000C872BD498868F4
:10470000BB4902F0DBFE064602F058FE80B2009084
:104710009DF80100B44908739DF800004873B5493D
:104720000869B34902F0CAFE064602F047FE80B2AD
:1047300000909DF80100AC4988739DF80000C87393
:10474000AD490868AA4902F0B9FE064602F036FEF5
:1047500080B200909DF80100A34908749DF8000004
:104760004874A5498868A24902F0A8FE064602F0EE
:1047700025FE80B200909DF801009B4988749DF849
:104780000000C8749C490869994902F097FE0646E2
:1047900002F014FE80B200909DF801009249087565
:1047A0009DF8000048750025002405E08E48005D56
:1047B0002844C5B2601CC4B21F2CF7DB8A48C577F9
:1047C0002021FFF76DFAF8BD70B588208649087082
:1047D000AC2048701C208870AC20C8708748407896
:1047E00008718648007848718448C0788871834889
:1047F0008078C87181484079087280480079487291
:104800007F48407888727E480078C8727C48C078BB
:1048100008737B4880784873794840798873784872
:104820000079C8730025002405E06F48005D284426
:10483000C5B2601CC4B21F2CF7DB6B48C5772021C2
:10484000FFF72EFA70BD70B5882067490870AC205C
:1048500048701C2088706048007810B1A120C87092
:1048600002E0A0206049C8700025002405E05E48F1
:10487000005D2844C5B2601CC4B21F2CF7DB5A4847
:10488000C5772021FFF70CFA70BD70B50024002019
:1048900005E05C49095C2144CCB2411CC8B21F2828
:1048A000F7DB5848C07FA04200D070BD5548007863
:1048B0008A2800D0F9E7534840788A2879D15148AE
:1048C000C078000200B24F49097908434349888003
:1048D0004C484079000200B24A49897908433F496F
:1048E000C8804848C079000200B24649097A0843A6
:1048F0003A4908804348407A000200B24149897A27
:104900000843364948803F48C07A000200B23D491A
:10491000097B0843314908813A48407B000200B2D4
:104920003849897B08432D4948813648C07B0002BD
:1049300000B23449097C0843284988813148407CC9
:10494000000200B22F49897C08432449C8812D48C0
:10495000C07C000200B22B49097D08431F49088230
:10496000FFF73CFE1D48B0F90000A0F2DC505021DA
:1049700090FBF1F5284602F041FD234908601748F5
:10498000B0F90200A0F2DC50412190FBF1F528467D
:1049900002F034FD1D4908601048B0F90600A0F28D
:1049A000DC50322190FBF1F5284602F027FD184932
:1049B0000860144840788B287ED11248C078AA2815
:1049C00037D110480079A22802D10020114908707F
:1049D0000C480079A1281FE0E8000020AE0200206A
:1049E000BC000020BE0000208E02002068030020D2
:1049F0000000C84288030020A80300208400002093
:104A00007E0000206E020020B0000020B4000020D4
:104A1000B80000205C00002002D10020FE49087090
:104A2000FE480079A32804D10020FD490870FA4906
:104A30000870FA48C078A02804D10020F94908700D
:104A4000FFF701FFF548C078A12804D10120F549FE
:104A50000870FFF7F8FEF148C078AB2813D1EF4893
:104A60004079EE49097900EB012000B2EE49088057
:104A7000EA48C079E949897900EB012000B2EA49A6
:104A80004880FEF77EF9E548C078AC2801D1FFF7F1
:104A90009BFEE248C078AD2801D1FFF7E1FDDF4879
:104AA000C078AE2888D1DD490979090209B2DB4A0C
:104AB000527941EA020000E089E002F09FFC0546DD
:104AC000DA4902F069FBDA490860D44989790902B8
:104AD00009B2D24AD27941EA020002F08FFC0546BF
:104AE000D24902F059FBD2498860CC49097A0902BF
:104AF00009B2CA4A527A41EA020002F07FFC054636
:104B0000CA4902F049FBCA490861C449897A0902C5
:104B100009B2C24AD27A41EA020002F06FFC0546AD
:104B2000C24902F039FBC3490860BC49097B09024C
:104B300009B2BA4A527B41EA020002F05FFC054624
:104B4000BA4902F029FBBB498860B449897B090254
:104B500009B2B24AD27B41EA020002F04FFC05469C
:104B6000B24902F019FBB3490861AC49097C09025A
:104B700009B2AA4A527C41EA020002F03FFC054613
:104B8000AA4902F009FBAC490860A449897C0902E2
:104B900009B2A24AD27C41EA020002F02FFC05468B
:104BA000A24902F0F9FAA44988609C49097D0902EA
:104BB00009B29A4A527D41EA020002F01FFC054602
:104BC0009A4902F0E9FA9C490861FEF72EF900BF04
:104BD0006BE670B50720FFF70FF8044614F0400F9E
:104BE00014D06020FFF708F80546212D09DA2022AD
:104BF0008A496120FFF734F8FFF747FEFEF722FDF0
:104C000003E0FF21E220FEF7E1FF00BF14F0200FD8
:104C100001D0FEF717FD14F0100F18D08748007868
:104C200038B110218648FBF716FD00208349087033
:104C300006E010218248FBF710FD01207F49087033
:104C400014F0010F03D0FF21E120FEF7BFFF214642
:104C50002720FEF7BBFF70BDF8B5882079490870A2
:104C6000AF2048701C20887077484078C87076481C
:104C7000007808717448C0784871734880788871EA
:104C800071484079C8717048007908726F4840785F
:104C900048726E48007888726C48C078C8726B4859
:104CA0008078087369484079487368480079887348
:104CB0000020C873087448748874C87408756449FF
:104CC00008685A4902F0FAFB064602F05BFB80B224
:104CD00000909DF801005B4948759DF800008875BB
:104CE0005B494868514902F0E9FB064602F04AFB7D
:104CF00080B200909DF801005249C8759DF80000EF
:104D0000087653498868534902F0D8FB064602F0FA
:104D100039FB80B200909DF801004A4948769DF821
:104D2000000088763F48007810B9A020C87606E0D9
:104D30003C480078012802D1A1204249C8760025CC
:104D4000002405E03F48005D2844C5B2601CC4B2A1
:104D50001F2CF7DB3B48C5772021FEF7A1FFF8BDEC
:104D600038B5882037490870AE2048701C208870FC
:104D700039484079C8703848007908713648C07998
:104D8000487135488079887133484078C871324815
:104D9000007808723048C07848722F48807888724E
:104DA0002D48407AC8722C48007A08732A48C07A85
:104DB00048732948807A88732748407BC8732648FF
:104DC000007B08742448C07B48742348807B887427
:104DD0002148407CC8742048007C08754FF0804012
:104DE000808E142190FBF1F080B200909DF80100BC
:104DF000144948759DF8000088754FF08040008F79
:104E0000142190FBF1F080B200909DF801000D4953
:104E1000C8759DF8000021E05D0000206E020020B2
:104E20005C000020E8000020840000200000C84250
:104E30006803002088030020A8030020C000002091
:104E4000000C01408E0200208A000020900000200B
:104E5000E402002000002041AE02002008763A481B
:104E60000088142190FBF1F080B200909DF80100C1
:104E7000364948769DF8000088763348001D008842
:104E8000142190FBF1F080B200909DF801002F49B1
:104E9000C8769DF8000008772D480088062190FB11
:104EA000F1F080B200909DF80100284948779DF804
:104EB000000088770025002405E02448005D284490
:104EC000C5B2601CC4B21F2CF7DB2048C577202177
:104ED000FEF7E6FE38BD10B51E480078401C1D499F
:104EE0000870882019490870A12048701C2088701B
:104EF0001948C078C87018488078087116484078FA
:104F000048711548007888711348C079C8711248F3
:104F1000807908721048407948720F480079887289
:104F20000C480078C872002005E00849095C21445B
:104F3000CCB2411CC8B21F28F7DB0448C47720213B
:104F4000FEF7AEFE10BD0000343401408E0200209A
:104F5000A8000020C1000020E40200202DE9F04F4D
:104F600087B04FF00009CA46CB46FEF778FCFEF743
:104F70007DFBFE480088FE49FE4A127821F81200A7
:104F8000FA484088FC49FB4A127821F81200F74899
:104F90008088FA49F74A127821F8120000240DE0BF
:104FA000F34830F914008144F34830F91400824486
:104FB000F24830F914008344601CC4B2142CEFDBB7
:104FC000142099FBF0F000B2ED49088014209AFB00
:104FD000F0F000B2488014209BFBF0F000B2888013
:104FE000E4480078401CE34908700846007814281B
:104FF00001D100200870E349B1F9040001F004FD7B
:105000000746E14AE14B01F053FDE14AE14BCDE9AE
:10501000000101F04DFD05460E46DF49886802F0AB
:1050200021F82A463346CDE9020101F0D9FACDE94B
:10503000040101F0A3FAD849886007B0BDE8F08FF9
:105040000FB59DB0D5480168006802F037FA159099
:10505000D3480168D148006802F030FA1490D14872
:105060000168CE48006802F029FA1390CC48016824
:10507000006802F023FA1290CB480168C848006823
:1050800002F01CFA1190C7480168006802F016FA95
:105090001090C5480168C348006802F00FFA0F90ED
:1050A000C1480168006802F009FA0E902299209820
:1050B00002F004FA0C90239902F000FA00210D90FE
:1050C00002F02CF901D121B000BD2399084602F06D
:1050D000F5F908902299084602F0F0F90690209917
:1050E000084602F0EBF90590069901F0E7FF0790FA
:1050F000089901F0E3FF099001F0B4FFCDE90A013E
:1051000001F016FACDE90C0101F038FA1C901C9957
:10511000209802F041F820901C99229802F03CF867
:1051200022901C99239802F037F823901399119834
:1051300002F0C2FA4FF080410D9002F0BFF91B90CF
:105140000F99149801F0BAFF4FF080410D9002F0D2
:10515000B5F91A901299159802F0AEFA0C901099C0
:1051600002F0AAFA0D900E9901F0A8FF19901A9971
:10517000239802F0A3F90D901999229802F09EF954
:105180000C900D9902F098FA18901999209802F055
:1051900095F90D901B99239802F090F90C900D99B8
:1051A00002F08AFA17901B99229802F087F90D9065
:1051B0001A99209802F082F90C900D9902F07CFA6D
:1051C00016907A49189802F079F90D90784801689C
:1051D0000D9801F073FF764908607449179802F042
:1051E0006DF90D90734801680D9801F067FF7149E2
:1051F00008606E49169802F061F90D906E480168DA
:105200000D9801F05BFF6C4908606C48189902F03A
:1052100055F90C901D9901F051FF0D9064480168FB
:105220000D9801F04BFF1D906448179902F046F964
:105230000C901E9901F042FF0D905E4801680D9898
:1052400001F03CFF1E905D48169902F037F90C9072
:105250001F9901F033FF0D90574801680D9801F038
:105260002DFF1F9050481F99006802F027F90B90FE
:105270004C481E99006802F021F9099048480068DE
:1052800080F0004007901D9902F018F908900999E4
:1052900002F012FA0A900B9902F00EFA48490C90AB
:1052A00002F00CF90D903D4801680D9801F006FFE1
:1052B0003A4908603C481E99006802F0FFF80B90DC
:1052C00038481F99006802F0F9F8099033480168DE
:1052D0001D9802F0F3F80890099901F0EFFE0A908A
:1052E0000B9902F0E9F936490C9002F0E7F80D90BD
:1052F0002B4801680D9801F0E1FE294908602A4811
:1053000001681D9802F0DAF80B9025481F99006893
:1053100002F0D4F8099021481E99006802F0CEF8F6
:105320000890099902F0C8F90A900B9901F0C6FE9D
:1053300023490C9002F0C2F80D901A4801680D98AC
:1053400001F0BCFE17490860084601681D9802F08C
:10535000B5F80B9012481E99006802F0AFF809905A
:105360000E481F99006802F0A9F82BE08A0000207F
:10537000F0020020E000002018030020400300207D
:10538000E2000020900000201FF1D01CFE3FAF3F44
:10539000FCA9F1D24D62503FC0020020C4000020A1
:1053A000C8000020CC000020D00000206F12033C79
:1053B000D4000020D8000020DC00002000002041A4
:1053C0006F12833A0890099901F078FE0A900B99C0
:1053D00002F072F997490C9002F070F80D9096481F
:1053E00001680D9801F06AFE93490860084601685B
:1053F000006802F063F8089090480168006802F0C5
:105400005DF806908E480168006802F057F8049035
:105410008C480168006802F051F80390049901F08B
:105420004DFE0590069901F049FE0790089901F09C
:1054300045FE099001F016FECDE90A0101F078F869
:10544000CDE90C0101F09AF81C907E481C99006887
:1054500001F0A2FE7B49086079481C99006801F0C0
:105460009BFE7749086075481C99006801F094FE1E
:105470007249086070481C99006801F08DFE6E4901
:10548000086071488068714988606E4801684FF013
:10549000804002F013F8049068480168049802F014
:1054A0000DF80690664801684FF0404002F006F89B
:1054B000049061480168049802F000F8059006998C
:1054C00001F0FCFD079001F0CDFDCDE9080100F0F1
:1054D0001FFD4FF066325E4BCDE90A0101F0E8FA9C
:1054E000CDE90C0101F04AF8584948605348016879
:1054F0004FF0804001F0E2FF0190504801680198B0
:1055000001F0DCFF03904E4801684FF0404001F08D
:10551000D5FF01904A480168019801F0CFFF029041
:10552000039902F0C9F84FF07E51049001F0C6FDD6
:10553000059001F097FDCDE90801424801684FF060
:10554000804001F0BBFF02903D480168029801F0E5
:10555000B5FF0490394801684FF0804001F0AEFF7C
:10556000029035480168029801F0A8FF0390049961
:1055700001F0A4FD059001F075FDCDE90601DDE91E
:10558000082300F015FF4FF06632314BCDE90A01D8
:1055900001F08EFACDE90C0100F0F0FF2B49086014
:1055A00000BF90E52DE9FF5F2A49B1F9040001F041
:1055B00025FF04462749B1F9020001F01FFF81468B
:1055C0002449B1F9000001F019FF23490390B1F912
:1055D000040001F019FA0746204A214B01F068FA4D
:1055E000054600F0CBFF82461B49B1F9020001F0ED
:1055F0000BFA0746194A1A4B01F05AFA054600F011
:10560000BDFF83461449B1F9000001F0FDF90746DA
:10561000124A134B01F04CFA054600F0AFFFCDE9FA
:105620000094029052465946039BFFF709FDBDE8DE
:10563000FF9F00006F12833AD0000020CC000020B2
:10564000C8000020C4000020C0020020E4020020A6
:1056500066A64C40E2000020900000202877442AF3
:105660003174513F70B506460D4614462946304602
:1056700001F0F0FF01D2284670BD2146304601F00E
:10568000E9FE01D22046F7E73046F5E72DE9F04F75
:105690008BB005460E4691461C46DDF850A0002012
:1056A0000A900990089007902146284601F006FDCF
:1056B00005903146504601F001FD04904946159889
:1056C00001F0FCFC0390D5488088A0F57A7000B208
:1056D0000690BDF91800002801DA00200690BDF9F7
:1056E000187007EBD771481001F088FECC4988612B
:1056F00000228869CB49FFF7B5FFC9488069CA49CC
:105700008861C7490868059901F0D8FEC449486016
:10571000C5490868049901F0D1FEC3494860214693
:10572000204601F0CBFE834601F09CFC0746BF4AB1
:10573000BF4B01F081F956D25146504601F0BEFEF2
:10574000834601F08FFC0746B84AB94B01F074F963
:1057500049D22946284601F0B1FE0746B54901F075
:1057600079FE40D23146304601F0A8FE0746B149E5
:1057700001F070FE37D2BDF91800B0F5967F32DD2A
:10578000A7498868059901F099FE0746A448C168B1
:10579000384601F093FCA249C860A349886804997F
:1057A00001F08CFE0746A048C168384601F086FC2F
:1057B0009D49C8609A48806980F00047984A91697D
:1057C000D0683A46FFF74EFF9549C8609648806911
:1057D00080F00047944A9169D0683A46FFF742FF4B
:1057E0009149C86008E0BDF91800C82804DA002013
:1057F0008B49C8608C49C8608F49B1F9000001F03D
:10580000FDFD074686480169384601F057FE844988
:1058100048618949B1F9020001F0F0FD074682486C
:105820000169384601F04AFE7F49486183490868AA
:10583000039901F043FE814948607848B0F90600B9
:10584000B0F5B96F05DB7548B0F90600B0F5BE6F6D
:105850000FDD794881887148C088A0F2DC5000EBE8
:10586000800001EB400000B2029000207449886083
:1058700002E0714880880290BDF9080001F0BEFD89
:1058800007466E480169384601F018FE6B494861C9
:10589000634AD168506801F011FC074660484169CD
:1058A000384601F00BFC5E49C8615F4AD168506818
:1058B00001F004FC07465C484169384601F0FEFBF4
:1058C0005949C8615D4AD168506801F0F7FB074645
:1058D0005A484169384601F0F1FB5849C861BDF9A1
:1058E0001800C8287DDDBDF9180001F087FD009083
:1058F0004B48C169009801F0E1FB83464A48C16901
:10590000584601F0D9FE4F49019001F0D7FB80467F
:105910004A48C169404601F0D1FB074601F04EFDFF
:1059200080B20A90BDF9180001F068FD00903C4873
:10593000C169009801F0C0FE01903B48C16901981F
:1059400001F0BAFE83463F4901F0B6FE80463B486F
:10595000C169404601F0B0FE074601F02FFD80B25C
:105960000990BDF9180001F049FD00902C48C1696B
:10597000009801F0A1FE83462B48C169584601F00A
:105980009DFB80462F4901F099FB07462B48C169D2
:10599000384601F093FB019001F010FD80B20890B1
:1059A000BDF9180001F02AFD00901D48C16900985A
:1059B00001F084FB01901C48C169019801F07EFB55
:1059C0008346204901F078FE80461C48C169404664
:1059D00001F072FE074601F0F1FC80B2079005E08D
:1059E000FFE700200A900990089007901648007879
:1059F00050B1079803B2089802B2099801B20A9808
:105A000000B2FEF717F805E000231A4619461846BB
:105A1000FEF710F80BB0BDE8F08F0000AE020020DA
:105A20006803002000007A44880300209A9999991D
:105A30009999B93F0000F04190000020A803002090
:105A4000C00200200000F0C1E800002008B50720D7
:105A5000009002E00098401E009000980028F9D1C4
:105A600008BD10B54FF48070CB4908614000086153
:105A7000FFF7ECFFC848806808B9012000E000206B
:105A800010F4807F01D0002010BD4FF48070C24917
:105A90004861FFF7DBFFC048806810F4807F01D0C9
:105AA0000020F1E74FF48070BB494861FFF7CEFF5B
:105AB0000120E9E710B54FF40070B7494861FFF7DE
:105AC000C5FF4FF48070B4494861FFF7BFFF4FF442
:105AD0000070B1490861FFF7B9FF4FF48070AE491B
