:020000040800F2
:1000000078090020AD200008472A0008492A000886
:100010004D2A0008512A0008552A00080000000057
:10002000000000000000000000000000592A000845
:100030005B2A0008000000005D2A00085F2A000813
:10004000C7200008C7200008C7200008C7200008F4
:10005000C7200008C7200008C7200008C7200008E4
:10006000C7200008C7200008C7200008C7200008D4
:10007000C7200008C7200008C7200008C7200008C4
:10008000C7200008C7200008C7200008C7200008B4
:10009000C7200008C7200008C7200008C7200008A4
:1000A0008D2A0008A32A0008B92A0008792B000825
:1000B0003D2E000889290008112F0008C7200008DC
:1000C000C7200008C7200008C7200008C720000874
:1000D000C720000881290008C7200008C7200008A1
:1000E000C7200008C7200008C720000800F002F859
:1000F00000F05AF80AA090E8000C82448344AAF168
:100100000107DA4501D100F04FF8AFF2090EBAE865
:100110000F0013F0010F18BFFB1A43F0010318473B
:10012000EC4A00000C4B00000A444FF0000C10F8A1
:10013000013B13F0070408BF10F8014B1D1108BF65
:1001400010F8015B641E05D010F8016B641E01F805
:10015000016BF9D113F0080F1EBF10F8014BAD1C55
:100160000C1B09D16D1E58BF01F801CBFAD505E073
:1001700014F8016B01F8016B6D1EF9D59142D6D3CD
:10018000704700000023002400250026103A28BFF5
:1001900078C1FBD8520728BF30C148BF0B607047F9
:1001A0001FB51FBD10B510BD04F0F9FC1146FFF7D7
:1001B000F7FF02F0AEFB04F017FD03B4FFF7F2FF08
:1001C00003BC04F01BFD00000CB500200190009062
:1001D0006B48006840F480306949086000BF684897
:1001E000006800F4003000900198401C01900098D5
:1001F00018B90198B0F5A06FF1D16148006810F40A
:10020000003F02D00120009001E000200090009803
:10021000012842D15B48006840F01000594908604D
:100220000846006820F0030008600846006840F0B7
:1002300002000860524840685149486008464068DA
:1002400048600846406840F480604860084640685E
:1002500020F47C1048600846406840F4E81048608C
:100260000846006840F08070086000BF444800689D
:1002700010F0007FFAD04248406820F00300404967
:1002800048600846406840F00200486000BF3C48B3
:10029000406800F00C000828F9D10CBD10B5FFF73C
:1002A00093FF10BD10B53648006840F00100344996
:1002B00008600846406834490840314948600846AB
:1002C0000068324908402E4908600846006820F45A
:1002D000802008600846406820F4FE0048604FF423
:1002E0001F008860FFF7DAFF4FF0006028490860C0
:1002F00010BD10B5002100200022214B5B6803F0E7
:100300000C0121B1042906D0082928D107E0214B8E
:10031000214C236027E01F4B1F4C236023E0184B28
:100320005B6803F47010164B5B6803F480320223A1
:1003300003EB904022B9194B4343174C23600DE067
:100340000F4B5B6813F4003F04D0144B4343124C33
:10035000236003E00F4B43430F4C236003E00D4B3E
:100360000D4C236000BF00BF054B5B68C3F3031354
:100370000B4CE15C084B1B68CB40074C236010BD65
:1003800000100240002002400000FFF8FFFFF6FED0
:1003900008ED00E000127A000000002000093D0096
:1003A0000400002031490143314A1160704770B5A3
:1003B000002100230F22C4780CB32D4C246804F4D0
:1003C000E064C4F5E064210AC1F10403CA40447842
:1003D00004FA03F18478144021430901254C06787E
:1003E000A155047804F01F050124AC4005786D1177
:1003F0004FF0E02606EB8505C5F8004109E00478DA
:1004000004F01F050124AC401B4D0678761145F819
:10041000264070BD194A0A400243154B1B1F1A6043
:10042000704739B1124A121D12680243104B1B1D4E
:100430001A6006E00E4A121D126882430C4B1B1D07
:100440001A607047042808D14FF0E021096941F093
:1004500004014FF0E022116107E04FF0E02109694B
:1004600021F004014FF0E022116170470000FA050D
:100470000CED00E000E400E080E100E080FFFF1F01
:1004800010B50446CA48844208D10121042001F075
:1004900039FC0021042001F035FC46E0C5488442C7
:1004A00008D10121082001F02DFC0021082001F0D5
:1004B00029FC3AE0C048844208D10121102001F013
:1004C00021FC0021102001F01DFC2EE0BB488442DD
:1004D00008D10121202001F015FC0021202001F08D
:1004E00011FC22E0B648844208D10121402001F0ED
:1004F00009FC0021402001F005FC16E0B1488442CF
:1005000008D10121802001F0FDFB0021802001F0B5
:10051000F9FB0AE0AC48844207D10121801501F0C3
:10052000F1FB0021A01501F0EDFB10BD10B501217C
:10053000084601F0E7FB0021012001F0E3FB10BDBC
:100540002DE9F0410246002500260020002300246A
:10055000002791F803C00CF00F0591F803C01CF0C0
:10056000100F03D091F802C04CEA050591F800C0C5
:10057000BCF1000F31D0146800202BE04FF0010CCB
:100580000CFA00F3B1F800C00CEA03069E4220D139
:1005900083004FF00F0C0CFA03F7BC4305FA03FC81
:1005A0004CEA040491F803C0BCF1280F06D14FF0C7
:1005B000010C0CFA00FCC2F814C00AE091F803C068
:1005C000BCF1480F05D14FF0010C0CFA00FCC2F849
:1005D00010C0401C0828D1D31460B1F800C0BCF191
:1005E000FF0F34DD546800202EE000F1080C4FF0BE
:1005F000010808FA0CF3B1F800C00CEA03069E42A9
:1006000021D183004FF00F0C0CFA03F7BC4305FA1D
:1006100003FC4CEA040491F803C0BCF1280F05D197
:1006200000F1080C08FA0CF8C2F8148091F803C025
:10063000BCF1480F07D100F1080C4FF0010808FA8F
:100640000CF8C2F81080401C0828CED35460BDE8D6
:10065000F0814FF6FF710180022181700421C17089
:1006600070470246002093680B4201D0012000E051
:10067000002070470146886880B27047024600201B
:10068000D3680B4201D0012000E0002070470146F2
:10069000C86880B2704701617047416170470AB114
:1006A000016100E041617047C16070474FF48032E2
:1006B0000A43826181618261826982697047024670
:1006C0000020424B18684FF68073184040EA021031
:1006D00008433E4B186070473D49C8617047F0B50C
:1006E0000A46002300240021002500F00046B6F150
:1006F000004F02D1354EF16901E0344E7168C0F30C
:10070000034583B200F44016B6F5401F08D121F02E
:1007100070612E4E766826F070662C4F7E6012E077
:1007200000F48016B6F5801F06D1032606FA05F4FC
:10073000A14341F0706106E0460D360103FA06F66A
:10074000B14341F0706122B1460D360103FA06F65D
:10075000314300F00046B6F1004F02D11B4EF1616B
:1007600001E01A4E7160F0BD30B500228B071C0FFE
:100770000F2303FA04F2154B08338C1053F824307E
:100780009343124C08348D1044F8253023468C10C6
:1007900053F824308C07240F00FA04F423430B4C45
:1007A00008348D1044F8253030BD0A490860704780
:1007B00000080140000C01400010014000140140FD
:1007C00000180140001C01400020014000000140D1
:1007D00000002042DC00204210B50446FE4884425E
:1007E00008D10121C01401F08DFA0021E01401F0BC
:1007F00089FAC4E0B4F1804F08D10121084601F024
:100800008EFA0021012001F08AFAB8E0F348844210
:1008100008D10121022001F082FA0021022001F01A
:100820007EFAACE0EE48844208D10121042001F0B8
:1008300076FA0021042001F072FAA0E0E94884422F
:1008400008D10121082001F06AFA0021082001F0F6
:1008500066FA94E0E448844208D10121102001F0B6
:100860005EFA0021102001F05AFA88E0DF48844245
:1008700008D10121202001F052FA0021202001F0AE
:100880004EFA7CE0DA48844208D10121401401F09C
:1008900039FA0021601401F035FA70E0D54884423D
:1008A00009D10121C80401F02DFA00214FF40020E4
:1008B00001F028FA63E0D048844209D101210805FB
:1008C00001F020FA00214FF4801001F01BFA56E0ED
:1008D000CA48844209D10121480501F013FA0021D8
:1008E0004FF4001001F00EFA49E0C548844208D1E7
:1008F0000121402001F013FA0021402001F00FFAFD
:100900003DE0C048844208D10121802001F007FA6F
:100910000021802001F003FA31E0BB48844208D175
:100920000121801501F0FBF90021A01501F0F7F974
:1009300025E0B648844209D10121080401F0E2F91A
:1009400000214FF4803001F0DDF918E0B048844216
:1009500009D10121480401F0D5F900214FF40030FC
:1009600001F0D0F90BE0AB48844208D101218804A2
:1009700001F0C8F900214FF4802001F0C3F910BD47
:1009800000220288944B98420ED0994B98420BD08B
:10099000B0F1804F08D0914B984205D0904B9842CF
:1009A00002D0904B984204D14FF68F731A404B8877
:1009B0001A438D4B984207D08C4B984204D04FF687
:1009C000FF431A40CB881A4302808B8883850B88AB
:1009D0000385814B98420BD0854B984208D08B4BB6
:1009E000984205D08A4B984202D08A4B984201D156
:1009F0000B7A038601238382704770B5002400229E
:100A00000023058C4FF6FE7635400584028C8388E2
:100A1000048B4FF68F752C40B51E2C400D882C434F
:100A2000751E2A400D892A434D882A436A4DA842E3
:100A30000BD06F4DA84208D0744DA84205D0744D1C
:100A4000A84202D0734DA84213D14FF6F7752A4041
:100A50004D892A434FF6FB752A408D882A434FF66D
:100A6000FF652B404FF6FF552B408D892B43CD89D9
:100A70002B4383800483CD888586028470BD70B546
:100A8000002400220023058C4FF6EF7635400584C4
:100A9000028C8388048B48F6FF752C404FF6FF4587
:100AA0002C400D884FF6FF7606EA05252C434FF6BD
:100AB000DF752A400D8906EA05152A434D8806EAA6
:100AC00005152A43444DA84202D0494DA8421DD1E4
:100AD0004FF67F752A404D894FF6FF7606EA0515D9
:100AE0002A434FF6BF752A408D8806EA05152A432A
:100AF0004FF6FF352B404FF2FF752B408D8906EAEC
:100B000085052B43CD8906EA85052B438380048325
:100B1000CD880587028470BD70B5002400220023B3
:100B2000058C4FF6FF6635400584028C8388848BE4
:100B30004FF68F752C404FF6FC752C400D882C43DA
:100B40004FF6FF552A400D894FF6FF7606EA052538
:100B50002A434D8806EA05252A431F4DA84202D0A4
:100B6000234DA8421DD14FF2FF752A404D894FF603
:100B7000FF7606EA05252A434FF6FF352A408D8881
:100B800006EA05252A434EF6FF752B404DF6FF7504
:100B90002B408D8906EA05152B43CD8906EA0515FC
:100BA0002B4383808483CD888587028470BD70B594
:100BB000002200230024058C4EF6FF763540058484
:100BC000038C8488828B48F6FF752A404FF6FF45D8
:100BD0002A400D8820E00000002C01400004004065
:100BE00000080040000C00400010004000140040CD
:100BF00000340140004C01400050014000540140CD
:100C000000180040001C004000200040004001404F
:100C100000440140004801404FF6FF7606EA0525F2
:100C20002A434DF6FF752B400D8906EA05352B4307
:100C30004D8806EA05352B43FA4DA84202D0FA4DFD
:100C4000A84208D14BF6FF752C408D894FF6FF76F0
:100C500006EA85152C4384808283CD88A0F8405015
:100C6000038470BD828B4FF2FF331A408283828BE4
:100C70004FF6FF7303EA01231A4382837047F0B5EE
:100C80000C461546002200210026078C4EF6FF7CFC
:100C900007EA0C070784828B018C4FF6FF7707EA7F
:100CA000043640F6FF473A404FF6FF7707EA05273C
:100CB0003A434FF6FF7707EA03373A43D94FB84232
:100CC0000ED0D94FB8420BD0B0F1804F08D0D74FDB
:100CD000B84205D0D64FB84202D0D64FB84206D15E
:100CE0004DF6FF77394046F48057394305E047F623
:100CF000FF57394044F48057394382830184F0BD63
:100D0000828B4FF6F3731A408283828B0A4382836D
:100D10007047F0B50C461546002200210026078CCE
:100D20004FF6FF6C07EA0C070784828B018C4FF6A5
:100D3000FF7707EA04264FF60C773A404FF6FF7725
:100D400007EA03172F433A43B64FB8420ED0B64FC7
:100D5000B8420BD0B0F1804F08D0B44FB84205D0A4
:100D6000B34FB84202D0B34FB84206D14FF6FF5747
:100D7000394046F48077394305E04FF2FF57394058
:100D800044F48077394382830184F0BD028B4FF2B3
:100D9000FF331A400283028B4FF6FF7303EA0123ED
:100DA0001A4302837047F0B50C4615460022002115
:100DB0000026078C4FF6EF7C07EA0C070784028BAE
:100DC000018C4FF6FF7707EA041640F6FF473A40DA
:100DD0004FF6FF7707EA03373A434FF6FF7707EA04
:100DE00005273A438F4FB8420ED08F4FB8420BD0F1
:100DF000B0F1804F08D08D4FB84205D08C4FB8422B
:100E000002D08C4FB84206D14FF6DF77394046F01A
:100E10001007394305E04FF65F77394044F010077B
:100E2000394302830184F0BD028B4FF6F3731A40FD
:100E30000283028B0A4302837047F0B50C461546C5
:100E400000220021068C4FF6FE773E400684028B7E
:100E5000018C4FF60C7632407E1C06EA03162E43B8
:100E60003243704EB0420ED06F4EB0420BD0B0F154
:100E7000804F08D06D4EB04205D06D4EB04202D0CA
:100E80006C4EB04206D14FF6FD76314044F001067B
:100E9000314305E04FF6F576314044F00106314329
:100EA00002830184F0BD70B505460C465D4885425D
:100EB0000ED05D4885420BD0B5F1804F08D05B481D
:100EC000854205D05A48854202D05A48854200D111
:100ED00000E000BF208850B92389A2886188284695
:100EE000FFF7ABFFE1882846FFF79EFF25E020884B
:100EF00004280AD12389A28861882846FFF753FF76
:100F0000E1882846FFF742FF17E0208808280AD129
:100F10002389A28861882846FFF7FBFEE1882846DE
:100F2000FFF7EEFE09E02389A28861882846FFF7D3
:100F3000A6FEE1882846FFF795FE70BD2DE9F04139
:100F400005460C4600260127608808B9022600E005
:100F50000026A088012801D1022700E0012720886F
:100F6000A0B92389A28861882846FFF766FFE18837
:100F70002846FFF759FF23893A4631462846FFF7AE
:100F800012FFE1882846FFF701FF13E02389A288BA
:100F900061882846FFF707FFE1882846FFF7F6FE3D
:100FA00023893A4631462846FFF747FFE18828461D
:100FB000FFF73AFFBDE8F0810A884B881A438B8817
:100FC0001A43CB881A430B891A434B891A438B89DE
:100FD0001A43A0F8442070474FF6FF71818000212A
:100FE0000180C180418001727047002101804180F1
:100FF0008180C180018141818181C181704700214F
:1010000001804180012181800021C18001817047E0
:101010000021018041808180C180018141818181E5
:1010200070470000002C01400034014000040040E3
:1010300000080040000C004021B1028842F001028B
:10104000028004E002884FF6FE731A400280704767
:1010500031B1B0F8442042F40042A0F8442005E049
:10106000B0F84420C2F30E02A0F8442070471AB131
:1010700083890B43838102E083898B43838170479B
:101080008182704741EA0203A0F8483070471AB1E4
:1010900083890B43838102E083898B43838170477B
:1010A00001894FF6F8721140018170470A4600210C
:1010B00001894FF68F73194011430181704730B594
:1010C00004460D4629462046FFF7F0FF208940F0F0
:1010D0000700208130BD2DE9F04104460D4616463B
:1010E0001F46602D06D13B46012231462046FFF7C0
:1010F0005AFE05E03B46012231462046FFF79DFEA1
:1011000029462046FFF7D2FF208940F007002081C2
:10111000BDE8F08130B50C4600210189C9B24FF617
:10112000FF7505EA0325154325432943018130BD99
:101130002DE9F04105460E461746984600244346E1
:101140003A4631462846FFF7E5FF2C894FF6F870FE
:10115000044044F007044FF68F70044044F07004DC
:101160002C81BDE8F081F0B504460D4616461F46B9
:101170003B46324629462046FFF7CCFF208940F403
:1011800080402081F0BD0185828270470A4600219F
:1011900001884FF68F731940114301807047F0B5F5
:1011A0000C4615461E460021002200230189028BB1
:1011B000038C4FF6F877394021434FF6FC473A400D
:1011C00040F201173A434FF6DD773B404FF6FF7789
:1011D00007EA06172F433B43018102830384F0BDD6
:1011E0000A460021018B4FF68F731940114301838A
:1011F00070470A460021018B48F6FF7319404FF6ED
:10120000FF7303EA02231943018370470A46002152
:10121000818B4FF68F7319401143818370470A46C3
:101220000021818B48F6FF7319404FF6FF7303EAE4
:10123000022319438183704721B1028842F0800262
:10124000028004E002884FF67F731A4002807047E4
:1012500021B1828842F00402828004E082884FF645
:10126000FB731A408280704721B1828842F00802E5
:10127000828004E082884FF6F7731A4082807047BC
:1012800021B1828842F00102828004E082884FF618
:10129000FE731A40828070470A460021018B4FF688
:1012A000F77319401143018370470A460021018BEF
:1012B0004FF2FF7319404FF6FF7303EA02231943FD
:1012C000018370470A460021818B4FF6F77319405E
:1012D0001143818370470A460021818B4FF2FF73CF
:1012E00019404FF6FF7303EA0223194381837047C5
:1012F0000A460021018B4FF6FB731940114301830D
:1013000070470A460021018B4FF6FF3319404FF614
:10131000FF7303EA02231943018370470A46002141
:10132000818B4FF6FB7319401143818370470A4646
:101330000021818B4FF6FF3319404FF6FF7303EA0C
:1013400002231943818370470A460021018B4FF61F
:101350007F7319401143018370470A460021018BB6
:10136000C1F30E014FF6FF7303EA02231943018311
:1013700070470A460021818B4FF67F731940114355
:10138000818370470A460021818BC1F30E014FF61D
:10139000FF7303EA02231943818370470A46002141
:1013A000018C4FF6FD7319401143018470470A46C2
:1013B0000021018C4FF6F7731940114301847047E7
:1013C0000A460021018C4FF6DF7319404FF6FF7378
:1013D00003EA02131943018470470A460021018C75
:1013E0004FF67F7319404FF6FF7303EA0213194358
:1013F000018470470A460021018C4FF6FF531940C3
:101400004FF6FF7303EA02231943018470470A462B
:101410000021018C4FF2FF7319404FF6FF7303EA6E
:1014200002231943018470470A460021018C4DF6BE
:10143000FF7319404FF6FF7303EA02331943018427
:10144000704730B5002301248C40A3B2048C9C4328
:101450000484048C02FA01F5ADB22C43048430BD3F
:1014600030B5002304248C40A3B2048C9C43048434
:10147000048C02FA01F5ADB22C43048430BD70B582
:101480000346002000241846183001258D40ACB2D8
:101490001D8CA5431D8409B1082909D100EB610009
:1014A000056825F0700505600568154305600EE0C8
:1014B0000D1FC5F34E052844056825F4E045056079
:1014C00005684FF6FF7606EA02263543056070BDD3
:1014D00021B1028842F00202028004E002884FF645
:1014E000FD731A400280704721B1028842F0040265
:1014F000028004E002884FF6FB731A4002807047B6
:1015000021B1828842F08002828004E082884FF616
:101510007F731A408280704702884FF6F7731A4033
:10152000028002880A430280704782884FF68F73D8
:101530001A40828082880A438280704702894FF66F
:10154000F8731A40028102890A43028170470289B6
:101550004FF67F731A40028102890A430281704765
:101560008184704781857047818670470187704705
:1015700081877047A0F84010704702884FF6FF43FC
:101580001A40028002880A43028070470146888E12
:1015900070470146088F70470146888F70470146A3
:1015A000B1F8400070470146888C70470146088DAD
:1015B000704702460020138A0B4201D0012000E050
:1015C00000207047CA430282704730B502460020AF
:1015D00000230024158A05EA0103958905EA010420
:1015E00013B10CB1012000E0002030BDCA430282DB
:1015F0007047000010B50446FB48844209D1012120
:10160000880300F07FFB00214FF4804000F07AFB5C
:1016100032E0F648844209D10121480400F07FFB02
:1016200000214FF4003000F07AFB25E0F0488442BE
:1016300009D10121880400F072FB00214FF48020C1
:1016400000F06DFB18E0EB48844209D10121C80489
:1016500000F065FB00214FF4002000F060FB0BE080
:10166000E548844208D10121080500F058FB00211B
:101670004FF4801000F053FB10BD2DE9F04786B009
:1016800005460E460024A24600BFA1460027B089A9
:1016900000B100BF2F462C8A4CF6FF700440F08842
:1016A00004432C82AC894EF6F3100440B088318993
:1016B0000843718908430443AC81AC8A4FF6FF406C
:1016C0000440B0890443AC8201A800F094FAC648F3
:1016D000874202D1DDF810A001E0DDF80CA0A88956
:1016E00010F4004F08D00AEBCA0000EB0A10316872
:1016F0004900B0FBF1F807E00AEBCA0000EB0A1062
:1017000031688900B0FBF1F86420B8FBF0F0040107
:101710002009642101FB1089A88910F4004F08D02A
:10172000322000EBC900B0FBF1F000F007000443E9
:1017300008E0322000EB09106421B0FBF1F000F06A
:101740000F0004432C8106B0BDE8F0874FF416511A
:10175000016000218180C18001810C214181002133
:101760008181704710B502460020108A4FF2FF03B6
:1017700018400B884C8823438C882343CC88234310
:101780001843108210BD0021018041808180C180FA
:10179000704721B1828942F40052828104E082893B
:1017A0004DF6FF731A4082817047F0B5034600245E
:1017B000002600250020A1F510676A3F00D100BF78
:1017C0001846C1F3421401F01F06012707FA06F577
:1017D000012C01D10C3004E0022C01D1103000E0CA
:1017E00014301AB107682F43076002E00768AF435F
:1017F0000760F0BD1AB1838A0B43838202E0838ABB
:101800008B4383827047028A4FF6F0731A4002823C
:10181000028A0A430282704782894FF2FF731A409C
:10182000828182890A438281704721B1828942F094
:101830000202828104E082894FF6FD731A408281A0
:101840007047028A4FF6DF731A400282028A0A4307
:101850000282704721B1028A42F48042028204E08F
:10186000028A4BF6FF731A4002827047C1F30802E6
:101870008280704701468888C0F3080070478189DC
:1018800041F0010181817047028BD2B20283028B49
:1018900042EA012202837047028B02F47F420283F4
:1018A000028B0A430283704721B1828A42F02002F0
:1018B000828204E0828A4FF6DF731A408282704788
:1018C00021B1828A42F01002828204E0828A4FF6BD
:1018D000EF731A408282704721B1828A42F0080277
:1018E000828204E0828A4FF6F7731A408282704740
:1018F00021B1828942F40042828103E08289C2F3ED
:101900000E028281704721B1828A42F40062828293
:1019100004E0828A4FF2FF731A4082827047828A03
:101920004FF6FB731A408282828A0A438282704792
:1019300021B1828A42F00202828204E0828A4FF65A
:10194000FD731A408282704702460020B1F5007F85
:1019500000D100BF13880B4201D0012000E000201D
:10196000704701F40072B2F5007F00D100BFCA4396
:101970000280704770B50246002400230025002035
:10198000A1F510666A3E00D100BFC1F3421501F017
:101990001F03012606FA03F3012D02D19689334075
:1019A00006E0022D02D1168A334001E0968A3340C8
:1019B0000C12012606FA04F41688344013B10CB157
:1019C000012000E0002070BD10B500220023A1F529
:1019D00010646A3C00D100BF0A1201249440A3B2F3
:1019E000DC43048010BD000000380140004400408A
:1019F00000480040004C004000500040DD480068B6
:101A000040F00100DB49086008464068DA490840B8
:101A1000D849486008460068D8490840D549086058
:101A20000846006820F4802008600846406820F4DA
:101A3000FE0048604FF41F0088607047CD49096878
:101A400021F48031CB4A11601146096821F48021CC
:101A50001160B0F5803F03D0B0F5802F0ED106E0C5
:101A6000C449096841F48031C24A116007E0C149A4
:101A7000096841F4A021BF4A116000E000BF00BF27
:101A8000704710B501460022002300204A11012AA8
:101A900002D1B84C236806E0022A02D1B54C236A71
:101AA00001E0B44C636A01F01F02012494401C421F
:101AB00001D0012000E0002010BD38B500200090CA
:101AC0000024002500BF3120FFF7DBFF054600980A
:101AD000401C00900098B0F5A06F01D0002DF2D00E
:101AE0003120FFF7CEFF08B1012400E0002420469A
:101AF00038BD014600209F4A106820F0F80040EAF7
:101B0000C100106070479E4908607047024600207F
:101B1000984B586820F47C1042EA01031843954B17
:101B20005860704796490866704701460020914A00
:101B3000506820F003000843506070478D484068AB
:101B400000F00C007047014600208A4A506820F0DF
:101B5000F00008435060704701460020854A5068F5
:101B600020F4E06008435060704701460020814A3D
:101B7000506820F4605040EAC1005060704729B1BD
:101B80007C4A527A02437B4B5A7204E0794A527A79
:101B90008243784B5A7270477A4908607047014611
:101BA0000020744A506820F4404008435060704759
:101BB0000021754A11706F4A82F82010012802D066
:101BC000042808D103E001216F4A117004E00521C7
:101BD0006D4A117000E000BF00BF70476B4908609C
:101BE00070476449096A0143624A11627047674954
:101BF00044390860704730B50021002200240023DA
:101C00005C4D6D6805F00C0121B1042905D008294F
:101C100023D105E05E4D056022E05D4D05601FE0CB
:101C2000544D6D6805F47012524D6D6805F48034A2
:101C3000022505EB92421CB9564D554305600BE059
:101C40004C4D6D6815F4003F03D0524D554305606F
:101C500002E04F4D5543056002E04D4D056000BF69
:101C600000BF444D6D6805F0F00109094A4D6B5CF9
:101C70000568DD4045603F4D6D6805F4E061090A87
:101C8000454D6B5C4568DD4085603A4D6D6805F4F7
:101C90006051C90A404D6B5C4568DD40C560354DFB
:101CA0006D6805F44041890B3C4D6B5CC568B5FB24
:101CB000F3F5056130BD29B12E4A526902432D4B1F
:101CC0005A6104E02B4A526982432A4B5A61704799
:101CD00029B1284A92690243264B9A6104E0254AB9
:101CE00092698243234B9A61704729B1214AD26994
:101CF0000243204BDA6104E01E4AD26982431D4B45
:101D0000DA61704729B11B4AD2680243194BDA6085
:101D100004E0184AD2688243164BDA60704729B152
:101D2000144A12690243134B1A6104E0114A126902
:101D30008243104B1A61704714494039086070475C
:101D40000F49C86470470B49C87170470948406A19
:101D500040F0807007494862704701460020054AFC
:101D600092680A4201D0012000E00020704701493A
:101D700088727047001002400000FFF8FFFFF6FE77
:101D800000004242D80042422010024080044242F9
:101D900000127A0000093D001400002024000020F9
:101DA00010B50446BE48844208D101218014FFF7D3
:101DB000A9FF0021A014FFF7A5FF16E0B94884424F
:101DC00008D101210014FFF7AAFF00212014FFF71A
:101DD000A6FF0AE0B448844207D10121C013FFF7EF
:101DE0009EFF0021E013FFF79AFF10BD10B50022FF
:101DF000028802F441520B884C8823438C88234389
:101E0000CC8823430C8923434C8923438C89234367
:101E1000CC8923431A430280838B4FF2FF74234003
:101E200083830B8A038210BD2DE9F04F85B00546F0
:101E30000C464FF0000902274FF000084FF0010B4D
:101E40000026B246A88B4FF240010840A88302202A
:101E50002884B5F81C90A068022801D100BF38E0A2
:101E6000A08810B94FF0010B01E04FF0020B8D4834
:101E7000854200D100E000BF6846FFF7BCFEDDF8F8
:101E800000A0E088B0F5007F0AD14FEA1A2000EBED
:101E900080004000A168B0FBF1F0401D86B20BE06D
:101EA0004FEA4B10BAFBF0F000EB80004000A16855
:101EB000B0FBF1F0401D86B20A20B6FBF0F606F04A
:101EC0000108A6EB0800C0F34F074FF6FF7000EAC9
:101ED0000828022F01DBFF2F02DD02274FF0000848
:101EE000E08840EA080038432884A088A189084394
:101EF000618808432188084340F4006040EA0909EA
:101F0000A5F81C9005B0BDE8F08F0021018041804C
:101F10008180C180018141818181C181072101824C
:101F200070470021018041808180C1800221816051
:101F300000218181704721B1028842F04002028075
:101F400004E002884FF6BF731A400280704721B147
:101F5000828B42F48062828304E0828B4FF6FF33EF
:101F60001A408283704730B5002400230C110125EC
:101F7000A540ABB21AB185881D43858002E08588F3
:101F80009D43858030BD1AB183880B43838002E076
:101F900083888B438380704781817047014688899D
:101FA0007047A1F57E42FF3A04D0028842F4807265
:101FB000028004E002884FF6FF631A4002807047F7
:101FC00021B1828842F00402828004E082884FF6C8
:101FD000FB731A408280704702884FF2FF731A40E9
:101FE000028002880A4302807047018841F48051D0
:101FF0000180704721B1028842F40052028004E05F
:1020000002884DF6FF731A40028070470246002096
:10201000012901D0108B00E0908A70470146088AA0
:102020007047B1F5804F04D1028842F480420280AB
:1020300004E002884BF6FF731A40028070470246A4
:10204000002013890B4201D0012000E000207047DE
:10205000CA4302817047F0B50246002000240023E5
:10206000002501F00F070126BE40B4B20B11012676
:102070009E40B3B2968806EA03051689264202D02E
:102080000DB1012000E00020F0BD10B5002201F0EC
:102090000F040123A3409AB2D343038110BD000073
:1020A0000030014000380040003C004009488047B3
:1020B00009480047FEE7FEE7FEE7FEE7FEE7FEE72A
:1020C000FEE7FEE7FEE7FEE704480549054A064B42
:1020D00070470000A5020008ED000008780300200A
:1020E00078090020780500207805002008B54FF415
:1020F000A060FEF757F925208DF8000002208DF82A
:10210000010000208DF8020001208DF803006846D0
:10211000FEF74DF91D208DF8000003208DF8010019
:1021200000208DF8020001208DF803006846FEF7BC
:102130003EF91C208DF8000001208DF801000020E0
:102140008DF8020001208DF803006846FEF72FF994
:1021500008BD00003EB5044601210220FFF7C5FD81
:102160003348FEF739FBADF804404720ADF80000D6
:102170000020ADF80600ADF8020069462C48FEF7D5
:10218000FFFB01212A48FFF71DFA012211462848CA
:10219000FEF76DFF01212648FEF74EFF3EBD00B55C
:1021A00087B001210846FFF7A0FD01210420FFF7B9
:1021B0008FFD0120ADF8000003208DF802000420FF
:1021C0008DF8030069461B48FEF7BAF94FF08040CE
:1021D000FEF702FB4FF6FF70ADF814004720ADF894
:1021E00010000020ADF81600ADF8120004A94FF061
:1021F0008040FEF7C5FB0020ADF80400ADF80600F6
:102200000120ADF808000020ADF80A00ADF80C0080
:1022100001A94FF08040FEF746FE01218807FEF736
:102220000BFF012202214807FEF721FF07B000BD86
:10223000000400400008014010B588B004460121A8
:102240008803FFF745FD01210420FFF741FD4FF40E
:102250000070ADF8040003208DF8060018208DF8FA
:10226000070001A9A548FEF76BF94FF48060ADF8AF
:10227000040003208DF8060004208DF8070001A952
:102280009E48FEF75DF904940020ADF81400ADF807
:102290001600ADF81800ADF81C000C20ADF81A00BF
:1022A0000020ADF80800ADF80A004FF40070ADF85A
:1022B0000C000020ADF80E0004A99148FFF7DDF9ED
:1022C00002A98F48FFF74EFA012240F225518C48AF
:1022D000FFF76BFA01218A48FFF75BFA08B010BDDF
:1022E0008748008810F0080F04D08549091D098827
:1022F000C8B200BF8248008810F0800F1ED080480E
:102300000C30008810F0800F18D07E4801780078DB
:10231000401C7C4A10707C48405C7949091D08804B
:102320001046007879490978884207D174480C3002
:10233000008820F0800072490C31088070480088C5
:1023400010F0200F36D06E49091D0988C8B27049B7
:10235000097859B98A2816D16E496F4A127801EB6B
:102360004211087001216A4A11700CE069496A4AF9
:10237000127801EB4211664A127888546449097850
:10238000491C634A117062490978202911D1002142
:102390005F4A11706049097831B100215E4A1170BD
:1023A00001215E4A117004E001215B4A11705C4A10
:1023B000117000BF704710B504465448017800788A
:1023C000401C524A1070504844544D480C3000880C
:1023D00010F0800F05D1012240F227714848FFF725
:1023E000E4F9204610BD31B500249DF8011047489E
:1023F00002780078401C454B1870434881549DF882
:102400000020184601780078401C18703E4842545D
:102410003B480C30008810F0800F05D1012240F2BB
:1024200027713748FFF7C1F99DF801002044C4B275
:102430009DF800002044C4B2204638BD31B50024C8
:102440003849009808600846C1783048027800781A
:10245000401C2E4B18702C48815432488178184605
:1024600002780078401C1870274881542D48427823
:10247000184601780078401C1870234842542948B7
:102480000178184602780078401C18701E48815464
:102490001B480C30008810F0800F05D1012240F25B
:1024A00027711748FFF781F99DF803002044C4B253
:1024B0009DF802002044C4B29DF801002044C4B23B
:1024C0009DF800002044C4B2204638BD10B5044633
:1024D0000FE020780D2802D1FFF76DFF08E020788B
:1024E0000A2802D1FFF767FF02E02078FFF763FFB9
:1024F000641C20780028ECD110BD000000080140C9
:10250000003801402C000020600100202D00002038
:102510002F0000205F0200202E000020310000204C
:10252000300000203400002000B587B001210820D1
:10253000FFF7CEFB01218803FFF7D7FB4FF4604084
:10254000ADF8040001208DF8060018208DF8070072
:1025500001A93C48FDF7F4FF01210820FFF7B8FB73
:102560004FF40060ADF8040001208DF80600102043
:102570008DF8070001A93348FDF7E2FF0121102083
:10258000FFF7A6FB4020ADF8040001208DF80600FF
:1025900010208DF8070001A92B48FDF7D1FF01217C
:1025A0001020FFF795FB8020ADF8040001208DF886
:1025B000060048208DF8070001A92348FDF7C0FF59
:1025C00040212148FEF767F80020ADF808004FF4DD
:1025D0008270ADF80A000020ADF80C00ADF80E00D6
:1025E000ADF810004FF40070ADF812001020ADF8F7
:1025F00014000020ADF816000720ADF8180002A95D
:102600001248FFF7F3FB01211048FFF794FC07B0D5
:1026100000BD10B5044600BF02210C48FFF70FFDB6
:102620000028F9D021460948FFF7B6FC00BF012178
:102630000648FFF704FD0028F9D00448FFF7AEFC78
:10264000C0B210BD000C0140001001400038004035
:1026500070B505460C4640219048FEF71EF8284606
:10266000FFF7D7FF06462046FFF7D3FF40218B48F0
:10267000FEF711F8304670BD70B50446402187481A
:10268000FEF70BF82046FFF7C4FF0020FFF7C1FF5D
:10269000054640218148FDF7FEFF284670BD2DE923
:1026A000F04107460D46164640217C48FDF7F5FFF0
:1026B0003846FFF7AEFF8046002404E0285DFFF7B0
:1026C000A8FF601CC4B2B442F8DB40217348FDF798
:1026D000E2FF4046BDE8F0812DE9F04107460D4696
:1026E000164640216D48FDF7D8FF3846FFF791FFA9
:1026F0008046002405E00020FFF78BFF2855601C72
:10270000C4B2B442F7DB40216448FDF7C4FF404641
:10271000BDE8F08170B504460D464FF40061604895
:10272000FDF7BBFF05225F492A20FFF7B8FF2A46C5
:102730002146A020FFF7B3FF4FF400615848FDF792
:10274000AAFF70BD70B504460D464FF400615448B1
:10275000FDF7A3FF2A462146A820FFF7A0FF4FF46C
:1027600000614F48FDF797FF70BD1CB505224D492C
:102770003020FFF794FF052269461020FFF7ACFFD9
:10278000002408E01DF804004649095D884200D095
:1027900003E0601CC4B2052CF4DB00BF052C01D1A2
:1027A00001201CBD0020FCE770B504460D464FF427
:1027B00000613B48FDF771FF05223B492A20FFF7E6
:1027C0006EFF052237493020FFF769FF01212120E4
:1027D000FFF73EFF01212220FFF73AFF1A212420B4
:1027E000FFF736FF28212520FFF732FF0F21262093
:1027F000FFF72EFF012C08D120213120FFF728FF01
:102800000F212020FFF724FF41E0022C08D12021D6
:102810003120FFF71DFF0E212020FFF719FF36E0C2
:10282000032C1AD1FF21E120FFF712FFFF21E22044
:10283000FFF70EFF0F212020FFF70AFF5020FFF7C0
:10284000E8FE7320FFF7E5FE01213C20FFF700FFC3
:1028500007213D20FFF7FCFE19E00E212020FFF7A5
:10286000F7FEFF21E120FFF7F3FEFF21E220FFF753
:10287000EFFE5020FFF7CDFE7320FFF7CAFE0121C7
:102880003C20FFF7E5FE07213D20FFF7E1FE4FF476
:1028900000610348FDF7FFFE70BD0000001001401D
:1028A000000C0140380000203D00002010B54FF41E
:1028B000FA70FFF74FFC01224FF6FF71482001F03C
:1028C000D5F802224FF6FF71482001F0CFF803221D
:1028D0004FF6FF71482001F0C9F804224FF6FF714E
:1028E000482001F0C3F8FFF701FC1648FFF7A4FCED
:1028F000FFF71AFE28210320FFF756FFFFF735FFE9
:1029000018B111A0FFF7E2FD02E014A0FFF7DEFD11
:1029100010BD002017490870FFF7C8FF01201549B6
:1029200008700DE001F08EFF02F0A9F8124800785F
:1029300030B100201049087020211048FFF702FF35
:10294000F0E7000020A107004E524632344C3031EF
:10295000204953204F4B20210D0A00004E52463291
:10296000344C3031204953204E4F54204F4B2021BE
:102970000D0A0000280000205C010020DF0200207A
:1029800010B5FFF7ADFC10BD10B53548008810F04C
:10299000010F56D04FF6FE7031490880314800785B
:1029A00000B910BD30480078401C2F4908702F48EE
:1029B0000078401C2D4908702D480078401C2C4997
:1029C00008702C480078401C2A4908702648007876
:1029D000022802D1002024490870244800780428E5
:1029E00021D100202149087023480088C83800B24E
:1029F000224988802248008800B2C8802148008887
:102A000040F6B831081A00B21C4908801E480088F8
:102A100000B248804FF47A70088148818881C8816B
:102A2000088202F062F8124800780A2802D10020D9
:102A30000F4908700F480078142802D100200D4972
:102A4000087000BFADE7704700BFFEE700BFFEE7BC
:102A500000BFFEE700BFFEE7704770477047704752
:102A60001004004028000020420000204300002005
:102A700044000020450000204C01002000030020FD
:102A800050010020440100204801002010B58021A1
:102A9000F848FEF79AFD18B18021F648FEF7A6FD2A
:102AA00010BD10B50121F348FEF78FFD18B10121CB
:102AB000F048FEF79BFD10BD10B54021ED48FEF734
:102AC00084FD18B14021EB48FEF790FD10BD70B5B4
:102AD00004460D460221E748FEF777FD002849D05D
:102AE0000221E448FEF782FDE348007858BB01204C
:102AF000E1490870DF48FEF749FDE04908800846D3
:102B00000088DF490988884213DDDC480088DC49F9
:102B10000988401ADB490880DB480088DB4991FBC3
:102B2000F0F0D849098890FBF1F02080D84800885F
:102B30002880D2480088D24908800221CD48FEF77B
:102B40002DFC012070BDCC48007801280FD1002059
:102B5000C9490870C748FEF719FDC8490988401AD5
:102B6000CB4908800021C348FEF718FC02E0002092
:102B7000C14908700020E5E710B5C649C648FFF70F
:102B8000A6FF10BD70B504460D4610218806FEF75D
:102B90001CFD00284BD010218806FEF727FDBF48FA
:102BA000007858BB0120BD4908708007FEF7F7FC8C
:102BB000BB49088008460088BA490988884213DD65
:102BC000B7480088B7490988401AB7490880B7480C
:102BD0000088AE4991FBF0F0B349098890FBF1F011
:102BE0002080B34800882880AD480088AD4908801F
:102BF00002214807FEF718FC012070BDA7480078A5
:102C0000012811D10020A54908704FF08040FEF73F
:102C1000C6FCA3490988401AA549088000214FF045
:102C20008040FEF701FC02E000209C490870002073
:102C3000E3E770B504460D460821C806FEF7C5FC5B
:102C400000284BD00821C806FEF7D0FC9948007830
:102C500058BB0120974908708007FEF79DFC9649F4
:102C600008800846008895490988884213DD924803
:102C7000008892490988401A914908808B48008849
:102C8000824991FBF0F08E49098890FBF1F0208099
:102C90008C4800882880884800888849088002215C
:102CA0004807FEF7A7FB012070BD82480078012885
:102CB00011D100207F4908704FF08040FEF76CFC76
:102CC0007D490988401A7F49088000214FF08040E3
:102CD000FEF790FB02E00020764908700020E3E751
:102CE00070B504460D4604210807FEF76EFC002867
:102CF0004BD004210807FEF779FC7348007858BBD5
:102D00000120714908708007FEF743FC6F49088075
:102D1000084600886E490988884213DD6B480088A0
:102D20006B490988401A6B490880604800885749F8
:102D300091FBF0F06749098890FBF1F0208066482C
:102D4000008828806148008861490880022148077E
:102D5000FEF736FB012070BD5B480078012811D1D9
:102D60000020594908704FF08040FEF712FC574987
:102D70000988401A5849088000214FF08040FEF72A
:102D80001FFB02E00020504908700020E3E770B507
:102D900004460D4602214807FEF717FC00284BD0D9
:102DA00002214807FEF722FC4C48007858BB01205E
:102DB0004A4908708007FEF7E9FB49490880084640
:102DC000008848490988884213DD454800884549FC
:102DD0000988401A44490880344800882B4991FBEF
:102DE000F0F04149098890FBF1F020803F480088CD
:102DF00028803B4800883B49088002214807FEF7AD
:102E0000CDFA012070BD35480078012811D100208D
:102E1000324908704FF08040FEF7B8FB304909880E
:102E2000401A3249088000214FF08040FEF7B6FA80
:102E300002E00020294908700020E3E710B50121D5
:102E40008807FEF7C2FB18B101218807FEF7CEFB09
:102E500027492848FFF79BFF27492848FFF740FFED
:102E600027492848FFF7E5FE27492848FFF78AFE4B
:102E700010BD0000002C0140460000204A00002048
:102E8000480000204C0000203601002000A24A0427
:102E90004E00002054010020520100208C00002030
:102EA000900000208E0000209200002038010020B9
:102EB0009400002082000020860000208400002072
:102EC000880000208A000020780000207C0000207C
:102ED0007A0000207E000020800000206E0000208C
:102EE0007200002070000020740000207600002096
:102EF000440100204201002048010020460100203A
:102F00004C0100204A010020500100204E01002009
:102F100010B50121FE48FEF758FB18B10121FC480D
:102F2000FEF764FB10BD70B504460D461021F9484C
:102F3000FEF74BFB002851D01021F648FEF756FB58
:102F4000F548007890BB0120F3490870F148FEF77E
:102F500026FBF249088008460088F1490988884222
:102F60001ADDEE480088EE490988401AED490880CC
:102F7000ED480088ED4991FBF0F0EA49098890FBA3
:102F8000F1F02080EA4800884FF47A714843E5491F
:102F9000098890FBF1F02880E0480088E04908802B
:102FA0000221DC48FEF740FA012070BDFFE7DA4855
:102FB000007801280FD10020D7490870D548FEF7C6
:102FC000EEFAD6490988401AD94908800021D1482B
:102FD000FEF72AFA02E00020CF4908700020E4E75B
:102FE00070B504460D460821CA48FEF7EEFA0028DF
:102FF00051D00821C748FEF7F9FACE48007890BBB7
:103000000120CC490870C348FEF7C6FACA490880B7
:1030100008460088C949098888421ADDC6480088E0
:10302000C6490988401AC6490880BF480088BF4978
:1030300091FBF0F0C249098890FBF1F02080C14873
:1030400000884FF47A714843BD49098890FBF1F03C
:103050002880B9480088B94908800221AD48FEF7A8
:10306000C9F9012070BDFFE7B248007801280FD1EF
:103070000020B0490870A748FEF78EFAAE490988CB
:10308000401AB04908800021A248FEF7B3F902E0D7
:103090000020A84908700020E4E770B504460D46FA
:1030A00004219C48FEF791FA002851D00421994848
:1030B000FEF79CFAA448007890BB0120A249087052
:1030C0009448FEF766FAA149088008460088A0499E
:1030D000098888421ADD9D4800889D490988401A60
:1030E0009C49088090480088904991FBF0F09949EC
:1030F000098890FBF1F02080974800884FF47A719E
:1031000048439449098890FBF1F028808F48008853
:103110008F49088002217F48FEF752F9012070BDD7
:10312000FFE78948007801280FD100208649087000
:103130007848FEF72EFA85490988401A86490880A2
:1031400000217448FEF73CF902E000207E49087037
:103150000020E4E770B504460D4602216D48FEF7F5
:1031600034FA002851D002216A48FEF73FFA7B4822
:10317000007890BB0120794908706648FEF706FA8E
:1031800077490880084600887649098888421ADD10
:103190007348008873490988401A73490880624857
:1031A0000088624991FBF0F06F49098890FBF1F0CB
:1031B00020806E4800884FF47A7148436A49098834
:1031C00090FBF1F02880664800886649088002215B
:1031D0005048FEF7E3F8012070BDFFE75F48007834
:1031E00001280FD100205D4908704A48FEF7CEF94A
:1031F0005B490988401A5D49088000214548FEF76F
:10320000CDF802E00020554908700020E4E710B531
:1032100001214048FEF7D9F918B101213D48FEF7D8
:10322000E5F953495348FFF795FF53495348FFF7D2
:1032300034FF53495348FFF7D3FE53495348FFF730
:1032400072FE10BD10B501215148FEF7BEF918B14C
:1032500001214F48FEF7CAF910BD10B501214D48B4
:10326000FEF7B3F918B101214A48FEF7BFF910BDC6
:1032700010B501214848FEF7A8F918B101214648C8
:10328000FEF7B4F910BD70B504460D461021424852
:10329000FEF79BF900283AD010213F48FEF7A6F927
:1032A0003E48007890BB01203C4908703A48FEF740
:1032B00076F93B490880084600883A4909888842DF
:1032C0001ADD3748008837490988401A364908808E
:1032D00036480088154991FBF0F03349098890FB86
:1032E000F1F02080324800884FF47A7148432E492B
:1032F000098890FBF1F02880294800882949088036
:1033000002212548FEF790F8012070BD52E068E0E8
:1033100000080040000C00400401002008010020CB
:10332000060100200A0100203E01002000A24A04FC
:103330000C010020FA000020FE000020FC0000200C
:103340000001002002010020F0000020F400002015
:10335000F2000020F6000020F8000020E600002027
:10336000EA000020E8000020EC000020EE00002031
:1033700044010020420100204801002046010020B5
:103380004C0100204A010020500100204E01002085
:103390000010004000140040003401402C010020C7
:1033A000300100202E0100203201002040010020C9
:1033B00034010020F748007801280FD10020F5499A
:1033C0000870F548FEF7EBF8F4490988401AF4490B
:1033D00008800021F048FEF727F802E00020ED49C0
:1033E0000870002070BD70B504460D460821EA48FB
:1033F000FEF7EBF8002851D00821E748FEF7F6F871
:10340000E848007890BB0120E6490870E248FEF7E2
:10341000C3F8E549088008460088E44909888842DD
:103420001ADDE1480088E1490988401AE04908802E
:10343000E0480088E04991FBF0F0DD49098890FB05
:10344000F1F02080DD4800884FF47A714843D84974
:10345000098890FBF1F02880D3480088D349088080
:103460000221CD48FDF7C6FF012070BDFFE7CD4822
:10347000007801280FD10020CA490870C648FEF71D
:103480008BF8C9490988401ACC4908800021C248F4
:10349000FDF7B0FF02E00020C24908700020E4E719
:1034A00070B504460D460421BB48FEF78EF800288F
:1034B00051D00421B848FEF799F8C148007890BB74
:1034C0000120BF490870B448FEF763F8BD49088081
:1034D00008460088BC49098888421ADDB948008836
:1034E000B9490988401AB9490880B2480088B249E8
:1034F00091FBF0F0B549098890FBF1F02080B448C9
:1035000000884FF47A714843B049098890FBF1F084
:103510002880AC480088AC49088002219E48FDF70D
:103520004FFF012070BDFFE7A548007801280FD1AB
:103530000020A34908709848FEF72BF8A149098894
:10354000401AA349088000219348FDF739FF02E0A3
:1035500000209B4908700020E4E770B504460D4642
:1035600002218D48FEF731F8002851D002218A4807
:10357000FEF73CF89748007890BB01209549087009
:103580008548FEF703F89449088008460088934967
:10359000098888421ADD9048008890490988401AB5
:1035A0008F49088083480088834991FBF0F08C495B
:1035B000098890FBF1F020808A4800884FF47A71E6
:1035C00048438749098890FBF1F0288082480088A9
:1035D0008249088002217048FDF7E0FE012070BD9D
:1035E000FFE77C48007801280FD100207949087056
:1035F0006948FDF7CBFF78490988401A7949088066
:1036000000216548FDF7CAFE02E0002071490870FC
:103610000020E4E710B574497448FFF79EFF744931
:103620007448FFF73DFF74497448FFF7DCFE7449A6
:103630007448FFF728FE10BD10B540215648FDF72D
:10364000C4FF18B140215448FDF7D0FF10BD10B59C
:1036500080215148FDF7B9FF18B180214E48FDF790
:10366000C5FF10BD70B588B005460E461446012151
:103670000C20FEF72DFB01210846FEF729FB012156
:10368000C802FEF725FB60480580012C0DD1200201
:10369000ADF81C0004208DF81F0003208DF81E00DB
:1036A00007A95A48FCF74CFF2FE0022C0DD120024D
:1036B000ADF81C0004208DF81F0003208DF81E00BB
:1036C00007A95248FCF73CFF1FE0032C0ED14FF432
:1036D0008060ADF81C0004208DF81F0003208DF8D9
:1036E0001E0007A94948FCF72BFF0EE0042C0CD163
:1036F0006002ADF81C0004208DF81F0003208DF837
:103700001E0007A94148FCF71BFFADF81460681EB6
:1037100080B2ADF810000020ADF81600ADF8120030
:1037200004A93B48FDF72CF9012C03D10020ADF88A
:10373000040010E0022C03D10420ADF804000AE0DC
:10374000032C03D10820ADF8040004E0042C02D1BE
:103750000C20ADF804000020ADF806000120ADF803
:1037600008000020ADF80A00ADF80C0001A92848B7
:10377000FDF799FB012C05D1012203212448FDF717
:1037800076FC56E0022C45D1012205212048FDF7A8
:103790006EFC4EE02C01002000340140300100207E
:1037A00034010020220100202601002024010020F5
:1037B000280100204001002000A24A042A01002024
:1037C000180100201C0100201A0100201E01002009
:1037D000200100200E010020120100201001002015
:1037E00014010020160100204401002042010020A5
:1037F00048010020460100204C0100204A01002021
:10380000500100204E010020360100200008014038
:10381000002C0140032C05D101220921F748FDF7B6
:1038200026FC06E0042C04D101221121F348FDF707
:103830001EFC0121F148FDF7FFFB08B070BD70B51B
:1038400004460D460421ED48FDF7BFFE002851D087
:103850000421EA48FDF7CAFEE948007890BB012040
:10386000E7490870E548FDF794FEE64908800846F8
:103870000088E549098888421ADDE2480088E24963
:103880000988401AE1490880E1480088E14991FB34
:10389000F0F0DE49098890FBF1F02080DE480088D6
:1038A0004FF47A714843D949098890FBF1F0288098
:1038B000D4480088D44908800221D048FDF780FD13
:1038C000012070BDFFE7CE48007801280FD100200D
:1038D000CB490870C948FDF75CFECA490988401AFF
:1038E000CD4908800021C548FDF76AFD02E00020AF
:1038F000C34908700020E4E770B504460D4608216E
:10390000BE48FDF762FE002851D00821BB48FDF7F4
:103910006DFEC248007890BB0120C0490870B748CE
:10392000FDF73AFEBE49088008460088BD4909886F
:1039300088421ADDBA480088BA490988401ABA494B
:103940000880B3480088B34991FBF0F0B649098874
:1039500090FBF1F02080B54800884FF47A7148431D
:10396000B149098890FBF1F02880AD480088AD4945
:1039700008800221A148FDF73DFD012070BDFFE751
:10398000A648007801280FD10020A44908709B4860
:10399000FDF702FEA2490988401AA44908800021C7
:1039A0009648FDF727FD02E000209C4908700020A2
:1039B000E4E770B504460D4610219048FDF705FE7A
:1039C000002851D010218D48FDF710FE984800784E
:1039D00090BB0120964908708848FDF7E0FD9549A5
:1039E0000880084600889449098888421ADD914871
:1039F000008891490988401A9049088084480088C5
:103A0000844991FBF0F08D49098890FBF1F020800A
:103A10008B4800884FF47A7148438849098890FBA5
:103A2000F1F0288083480088834908800221734888
:103A3000FDF7FAFC012070BDFFE77D480078012802
:103A40000FD100207A4908706C48FDF7A8FD79492C
:103A50000988401A7A49088000216848FDF7E4FC8B
:103A600002E00020724908700020E4E770B588B0D9
:103A700005460E46144601210846FEF736F9012197
:103A80000420FEF725F96F480580012C0DD1012097
:103A9000ADF81C0004208DF81F0003208DF81E00D7
:103AA00007A96948FCF74CFD2DE0022C0DD102203E
:103AB000ADF81C0004208DF81F0003208DF81E00B7
:103AC00007A96148FCF73CFD1DE0032C0CD1042044
:103AD000ADF81C008DF81F0003208DF81E0007A90B
:103AE0005948FCF72DFD0EE0042C0CD10820ADF850
:103AF0001C0004208DF81F0003208DF81E0007A96C
:103B00005148FCF71DFDADF81460681E80B2ADF899
:103B100010000020ADF81600ADF8120004A94FF017
:103B20008040FCF72DFF012C03D10020ADF80400EC
:103B300010E0022C03D10420ADF804000AE0032CAD
:103B400003D10820ADF8040004E0042C02D10C20BD
:103B5000ADF804000020ADF806000120ADF8080023
:103B60000020ADF80A00ADF80C0001A94FF080402C
:103B7000FDF799F9012C05D1012203219007FDF7EA
:103B800076FA16E0022C05D1012205218807FDF7FF
:103B90006EFA0EE0032C05D1012209218807FDF7FA
:103BA00066FA06E0042C04D1012211218807FDF7F2
:103BB0005EFA01218807FDF73FFA08B070BD70B5C5
:103BC00088B005460E46144601210220FEF78DF806
:103BD00001210C20FEF77CF81C480580012C37D110
:103BE0004020ADF81C0004208DF81F0003208DF844
:103BF0001E0007A91448FCF7A3FC58E0002C014064
:103C000050000020540000205200002056000020E8
:103C10003601002000A24A04580000205A0000206B
:103C20005E0000205C000020600000206200002098
:103C30006400002068000020660000206A00002068
:103C40006C00002038010020000801403A010020EB
:103C5000022C0DD18020ADF81C0004208DF81F002F
:103C600003208DF81E0007A9F848FCF769FC1EE048
:103C7000032C0DD10120ADF81C0004208DF81F008D
:103C800003208DF81E0007A9F148FCF759FC0EE04F
:103C9000042C0CD10220ADF81C0004208DF81F006C
:103CA00003208DF81E0007A9E948FCF749FCADF890
:103CB0001460681E80B2ADF810000020ADF8160048
:103CC000ADF8120004A9E348FCF75AFE012C03D119
:103CD0000020ADF8040010E0022C03D10420ADF860
:103CE00004000AE0032C03D10820ADF8040004E02E
:103CF000042C02D10C20ADF804000020ADF8060021
:103D00000120ADF808000020ADF80A00ADF80C0065
:103D100001A9D048FDF7C7F8012C05D101220321E4
:103D2000CC48FDF7A4F916E0022C05D101220521AB
:103D3000C848FDF79CF90EE0032C05D101220921AA
:103D4000C448FDF794F906E0042C04D101221121A6
:103D5000C048FDF78CF90121BE48FDF76DF908B0A8
:103D600070BD70B504460D460221BA48FDF72DFC22
:103D7000002851D00221B748FDF738FCB64800783A
:103D800090BB0120B4490870B248FDF7FFFBB3496E
:103D9000088008460088B249098888421ADDAF4881
:103DA0000088AF490988401AAE490880AE480088AB
:103DB000AE4991FBF0F0AB49098890FBF1F020800F
:103DC000AB4800884FF47A714843A649098890FBB4
:103DD000F1F02880A1480088A149088002219D486F
:103DE000FDF7DCFA012070BDFFE79B480078012851
:103DF0000FD10020984908709648FDF7C7FB9749F6
:103E00000988401A9A49088000219248FDF7C6FAAD
:103E100002E00020904908700020E4E770B50446F5
:103E20000D4604218B48FDF7D0FB002851D004211A
:103E30008848FDF7DBFB8F48007890BB01208D4957
:103E400008708448FDF7A5FB8B4908800846008868
:103E50008A49098888421ADD874800888749098885
:103E6000401A8749088080480088804991FBF0F01B
:103E70008349098890FBF1F02080824800884FF444
:103E80007A7148437E49098890FBF1F028807A488E
:103E900000887A49088002216E48FDF791FA0120D6
:103EA00070BDFFE77348007801280FD100207149E9
:103EB00008706848FDF76DFB6F490988401A714921
:103EC000088000216348FDF77BFA02E00020694981
:103ED00008700020E4E770B504460D4608215D48EF
:103EE000FDF773FB002851D008215A48FDF77EFBEF
:103EF0006548007890BB0120634908705548FDF77C
:103F00004BFB62490880084600886149098888425D
:103F10001ADD5E4800885E490988401A5D490880BC
:103F200051480088514991FBF0F05A49098890FBAB
:103F3000F1F02080584800884FF47A714843554981
:103F4000098890FBF1F0288050480088504908808B
:103F500002214048FDF74EFA012070BDFFE74A48B4
:103F6000007801280FD10020474908703948FDF733
:103F700013FB46490988401A474908800021354803
:103F8000FDF738FA02E000203F4908700020E4E71E
:103F900070B504460D4610212E48FDF716FB00288B
:103FA00051D010212B48FDF721FB3C48007890BBF5
:103FB00001203A4908702748FDF7F1FA384908808E
:103FC000084600883749098888421ADD3448008845
:103FD00034490988401A3449088023480088234915
:103FE00091FBF0F03049098890FBF1F020802F48D8
:103FF00000884FF47A7148432B49098890FBF1F00F
:104000002880274800882749088002211148FDF7A9
:104010000BFA012070BDFFE72048007801280FD17E
:1040200000201E4908700B48FDF7B9FA1C490988A1
:10403000401A1E49088000210648FDF7F5F902E004
:104040000020164908700020E4E700000008014045
:10405000000C014000040040960000209A0000205F
:10406000980000209C0000203A01002000A24A0491
:104070009E000020A0000020A4000020A20000203C
:10408000A6000020A8000020AA000020AE0000200A
:10409000AC000020B0000020B2000020B4000020DE
:1040A000B8000020B6000020BA000020BC000020AC
:1040B00070B588B005460E46144601210420FDF770
:1040C00014FE01210820FDF703FEFB480580012CAA
:1040D0000DD14020ADF81C0004208DF81F000320F6
:1040E0008DF81E0007A9F548FCF72AFA2FE0022CEC
:1040F0000DD18020ADF81C0004208DF81F00032096
:104100008DF81E0007A9ED48FCF71AFA1FE0032CF2
:104110000ED14FF48070ADF81C0004208DF81F0004
:1041200003208DF81E0007A9E448FCF709FA0EE009
:10413000042C0CD1E001ADF81C0004208DF81F0008
:1041400003208DF81E0007A9DC48FCF7F9F9ADF84B
:104150001460681E80B2ADF810000020ADF81600A3
:10416000ADF8120004A9D648FCF70AFC012C03D1D3
:104170000020ADF8040010E0022C03D10420ADF8BB
:1041800004000AE0032C03D10820ADF8040004E089
:10419000042C02D10C20ADF804000020ADF806007C
:1041A0000120ADF808000020ADF80A00ADF80C00C1
:1041B00001A9C348FCF777FE012C05D10122032198
:1041C000BF48FCF754FF16E0022C05D1012205215F
:1041D000BB48FCF74CFF0EE0032C05D1012209215E
:1041E000B748FCF744FF06E0042C04D1012211215A
:1041F000B348FCF73CFF0121B148FCF71DFF08B0B4
:1042000070BD70B504460D460221AD48FDF7DDF9DD
:10421000002851D00221AA48FDF7E8F9A948007802
:1042200090BB0120A7490870A548FDF7AFF9A64942
:10423000088008460088A549098888421ADDA248F6
:104240000088A2490988401AA14908809A48008834
:10425000A04991FBF0F09E49098890FBF1F0208085
:104260009D4800884FF47A7148439949098890FB2A
:10427000F1F02880944800889449088002219048F1
:10428000FDF78CF8012070BDFFE78E48007801280B
:104290000FD100208B4908708948FDF777F98A49CA
:1042A0000988401A8C49088000218548FDF776F876
:1042B00002E00020834908700020E4E770B504465E
:1042C0000D4604217E48FDF780F9002851D00421D5
:1042D0007B48FDF78BF98148007890BB01207F492E
:1042E00008707748FDF755F97D4908800846008831
:1042F0007C49098888421ADD79480088794909880B
:10430000401A794908806C480088724991FBF0F0A6
:104310007549098890FBF1F02080744800884FF4BB
:104320007A7148437049098890FBF1F028806C4805
:1043300000886C49088002216148FDF741F801209E
:1043400070BDFFE76548007801280FD10020634960
:1043500008705B48FDF71DF961490988401A6349F7
:10436000088000215648FDF72BF802E000205B4949
:1043700008700020E4E770B504460D460821504857
:10438000FDF723F9002851D008214D48FDF72EF9FB
:104390005748007890BB0120554908704848FDF700
:1043A000FBF8544908800846008853490988884228
:1043B0001ADD5048008850490988401A4F49088042
:1043C0003D480088434991FBF0F04C49098890FB37
:1043D000F1F020804A4800884FF47A7148434749F9
:1043E000098890FBF1F02880424800884249088003
:1043F00002213348FCF7FEFF012070BDFFE73C4877
:10440000007801280FD10020394908702C48FDF7A9
:10441000C3F838490988401A3949088000212848DA
:10442000FCF7E8FF02E00020314908700020E4E7D3
:1044300070B504460D4610212148FDF7C6F8002846
:104440006AD010211E48FDF7D1F82E48007890BBA5
:1044500001202C4908701A48FDF7A1F82A49088064
:10446000084600882949098888421ADD26480088BC
:1044700026490988401A264908800F4800881549AE
:1044800091FBF0F02249098890FBF1F0208021484F
:1044900000884FF47A7148431D49098890FBF1F078
:1044A0002880194800881949088002210448FCF72F
:1044B000BBFF012070BD30E03C010020000C01403A
:1044C00000080040BE000020C2000020C000002004
:1044D000C400002000A24A04C6000020C80000203A
:1044E000CC000020CA000020CE000020D000002018
:1044F000D2000020D6000020D4000020D8000020E8
:10450000DA000020DC000020E0000020DE000020B7
:10451000E2000020E400002016E0B94800780128FD
:104520000FD10020B6490870B648FDF738F8B649F3
:104530000988401AB54908800021B248FCF774FF89
:1045400002E00020AE490870002070BD70B588B050
:1045500005460E46144601210820FDF7C6FB012141
:104560000420FDF7B5FBAA480580012C0DD10120E0
:10457000ADF81C0004208DF81F0003208DF81E00EC
:1045800007A9A448FBF7DCFF2DE0022C0DD1022087
:10459000ADF81C0004208DF81F0003208DF81E00CC
:1045A00007A99C48FBF7CCFF1DE0032C0CD104208D
:1045B000ADF81C008DF81F0003208DF81E0007A920
:1045C0009448FBF7BDFF0EE0042C0CD10820ADF899
:1045D0001C0004208DF81F0003208DF81E0007A981
:1045E0008C48FBF7ADFFADF81460681E80B2ADF8E3
:1045F00010000020ADF81600ADF8120004A986489E
:10460000FCF7BEF9012C03D10020ADF8040010E046
:10461000022C03D10420ADF804000AE0032C03D1DE
:104620000820ADF8040004E0042C02D10C20ADF801
:1046300004000020ADF806000120ADF808000020BD
:10464000ADF80A00ADF80C0001A97348FCF72BFC8B
:10465000012C05D1012203216F48FCF708FD16E06B
:10466000022C05D1012205216B48FCF700FD0EE06C
:10467000032C05D1012209216748FCF7F8FC06E06C
:10468000042C04D1012211216348FCF7F0FC012124
:104690006148FCF7D1FC08B070BD70B588B0054624
:1046A0000E461446012142F21000FDF711FB5B4853
:1046B0000580012C0DD14020ADF81C0004208DF8A0
:1046C0001F0003208DF81E0007A95548FBF738FF8F
:1046D0002FE0022C0DD18020ADF81C0004208DF8B5
:1046E0001F0003208DF81E0007A94D48FBF728FF87
:1046F0001FE0032C0ED14FF48070ADF81C00042095
:104700008DF81F0003208DF81E0007A94448FBF711
:1047100017FF0EE0042C0CD1E001ADF81C000420C2
:104720008DF81F0003208DF81E0007A93C48FBF7F9
:1047300007FFADF81460681E80B2ADF810000020CD
:10474000ADF81600ADF8120004A93648FCF718F9C8
:10475000012C03D10020ADF8040010E0022C03D19D
:104760000420ADF804000AE0032C03D10820ADF8C2
:10477000040004E0042C02D10C20ADF80400002059
:10478000ADF806000120ADF808000020ADF80A00E1
:10479000ADF80C0001A92348FCF785FB60214FF020
:1047A0008040FCF783FC04211E48FCF7C7FE8021F3
:1047B0001C48FCF7CCFE012C05D10122032119482D
:1047C000FCF755FC16E0022C05D101220521154805
:1047D000FCF74DFC0EE0032C05D101220921114804
:1047E000FCF745FC06E0042C04D1012211210D4800
:1047F000FCF73DFC01210B48FCF71EFC08B070BD26
:10480000DC00002000080040E0000020E400002060
:104810003E01002000080140000C00404001002043
:10482000001001400034014010B504468B4800EBF5
:10483000441000788A2804D1884901EB441000F024
:1048400017F910BD10B586480078A0B10020844942
:104850000870002400BF04E08049095C2144CCB208
:10486000401C1F28F8DB7D48C07FA04202D10020F9
:10487000FFF7DAFF00BF7B480078B0B1002079492C
:104880000870002400BF05E074492031095C214410
:10489000CCB2401C1F28F7DB704890F83F00A042C4
:1048A00002D10120FFF7C0FF00BF10BD70B5044664
:1048B0000D4605E02078FDF77EFD641C681EC5B23C
:1048C000002DF7D170BD10B500248820FDF773FDD1
:1048D0002044C4B2AE20FDF76EFD2044C4B21C20BB
:1048E000FDF769FD2044C4B25F49898888B2FDF7AD
:1048F0007AFD2044C4B25C49C98888B2FDF773FDD3
:104900002044C4B25849098888B2FDF76CFD2044A0
:10491000C4B25549498888B2FDF765FD2044C4B248
:104920005149098988B2FDF75EFD2044C4B24E4961
:10493000498988B2FDF757FD2044C4B24A498989A4
:1049400088B2FDF750FD2044C4B24749C98988B2F6
:10495000FDF749FD2044C4B20020FDF744FD20448A
:10496000C4B20020FDF73FFD2044C4B20020FDF793
:104970003AFD2044C4B20020FDF735FD2044C4B206
:104980000020FDF730FD2044C4B20020FDF72BFDD0
:104990002044C4B22046FDF70EFD10BD70B505469B
:1049A0000E460024002D38DD072D36DA8820FDF76D
:1049B00002FD2044C4B2AD20FDF7FDFC2044C4B28A
:1049C0000220FDF7F8FC2044C4B22846FDF7F3FCB2
:1049D0002044C4B22EB90020FDF7EDFC2044C4B23F
:1049E00017E0012E05D10120FDF7E5FC2044C4B2FB
:1049F0000FE01E48405D18B100201C49485502E0F8
:104A000001201A4948551949485DFDF7D4FC204456
:104A1000C4B22046FDF7CFFC1FE0062D1DDD0D2D95
:104A20001BDA8820FDF7C7FC2044C4B2AD20FDF797
:104A3000C2FC2044C4B20320FDF7BDFC2044C4B234
:104A40002846FDF7B8FC2044C4B23046FDF7CBFC45
:104A50002044C4B22046FDF7AEFC70BD5F020020CA
:104A6000300000203100002000030020560100200B
:104A700010B5044620212046FDF764FE10BD70B538
:104A80000720FDF7F9FD044614F0400F14D0602014
:104A9000FDF7F2FD0546212D09DA2A463949612044
:104AA000FDF71AFE29463748FFF700FF03E0FF2114
:104AB000E220FDF7CDFD00BF14F0100F10D03248FA
:104AC0000088401C30490880084601880720FFF70D
:104AD00065FF14F0010F03D0FF21E120FDF7B8FDC1
:104AE00021462720FDF7B4FD70BD8A20274A1070AB
:104AF00050701C20907026484079D070244800796E
:104B000010712348C07950712148807990712048F4
:104B10004078D0711E48007810721D48C0785072DD
:104B20001B48807890721A48407AD0721848007AF0
:104B300010731748C07A50731548807A90731448E0
:104B4000407BD0731248007B10741148C07B5074B6
:104B50000F48807B90740E48407CD0740C48007CD9
:104B600010750021002005E0084A125C0A44D1B209
:104B7000421CD0B21F28F7DB0448C1770120054A48
:104B8000107070479F0200205E010020DF020020AD
:104B9000000300205C010020704770477047754695
:104BA00000F028F8AE4605006946534620F007009D
:104BB000854618B020B5FDF787FABDE820404FF0D4
:104BC00000064FF000074FF000084FF0000B21F0F7
:104BD0000701AC46ACE8C009ACE8C009ACE8C009C4
:104BE000ACE8C0098D4670470446AFF3008020460C
:104BF000FBF7E3FA0048704714030020014918202E
:104C0000ABBEFEE726000200704700002C4C0008F7
:104C1000000000206001000028010008544C00083A
:104C20006001002018080000840100081184A24AD5
:104C300004680901020304060708090C691005103D
:104C4000020406083EE1E2E3E4E505593C9109E48B
:044C50000A0128002D
:04000005080000ED02
:00000001FF
